:020000040800F2
:10000000A00E0020490100083D2D000871260008BF
:10001000E12B0008790D00080537000800000000FA
:100020000000000000000000000000002532000871
:100030007D0F0008000000000D300008A33200080A
:100040006301000863010008630100086301000800
:1000500063010008630100086301000863010008F0
:1000600063010008630100086301000863010008E0
:1000700063010008630100086301000863010008D0
:1000800063010008630100086301000863010008C0
:1000900063010008630100086301000863010008B0
:1000A00063010008630100086301000863010008A0
:1000B00009330008630100086301000863010008B8
:1000C0006301000863010008630100086301000880
:1000D00063010008B1360008BD360008C9360008C3
:1000E0006301000863010008630100086301000860
:1000F0006301000863010008630100086301000850
:10010000630100086301000863010008630100083F
:10011000630100086301000863010008630100082F
:10012000630100086301000863010008630100081F
:10013000DFF810D000F05CFC00480047B540000834
:10014000AFF30080A00E0020064880470648004715
:10015000FEE7FEE7FEE7FEE7FEE7FEE7FEE7FEE777
:10016000FEE7FEE70533000831010008202A04DB22
:10017000203A21FA02F00021704721FA02F3D04020
:10018000C2F120029140084319467047D2B201E003
:1001900000F8012B491EFBD270470022F6E710B58C
:1001A00013460A4604461946FFF7F0FF204610BDE5
:1001B00030B505462A460B4612F8010B13F8014BE1
:1001C00008B1A042F8D01CB1002802D06D1CF1E7A4
:1001D000284630BD10B5002200E0521C835C8C5CC8
:1001E000A34201D1002BF8D1D8B2E1B2401A10BD20
:1001F0000FB400B58DB010A909900B9000914FF08D
:10020000FF300A9000200C900548069005480790A2
:100210006A4609A80F9900F0BDFA0DB05DF814FB0D
:10022000B1070008CF0700082DE9FF5F1D464FF01A
:10023000FF3BD5E9014691465F464FF00008A969AA
:100240007F1C01988847296A824688470028F6D192
:10025000BAF1FF3F0CD024F4C064002E19DD600613
:1002600014D5BAF12B0F09D0BAF12D0F0ED103E03E
:10027000584604B0BDE8F09F44F48064A9697F1C2F
:1002800001988847761E8246002E02DDBAF1300FB3
:1002900003D0B9F1000F26D032E0A969761E44F4EC
:1002A00000747F1C019888478246002E05DDBAF154
:1002B000780F06D0BAF1580F03D0B9F1000F10D063
:1002C0001EE0B9F1000F02D0B9F1100F18D1A969E1
:1002D000761E24F400747F1C019888478246102003
:1002E00002E0082000E00A20814609E008FB090836
:1002F000A969761E44F400747F1C019888478246E1
:10030000002E05DD4946504600F02FFA0028EDDAB0
:10031000E96901988847A00502D46FF00100A8E7B9
:10032000E00725D1600613D5600502D5C8F10000AD
:1003300000E0404629680A1D2A600968220501D5A7
:10034000087015E0220701D5088011E008600FE071
:100350002868011D29600068210502D580F8008009
:1003600006E0210702D5A0F8008001E0C0F8008077
:1003700038467EE72DE9FF5FD2E901A74FF000087C
:10038000916999461446DDF838B046460198884789
:10039000054659EA0B0005D009E0A169761C0198D1
:1003A00088470546216A284688470028F5D1681CF9
:1003B00003D05FEACA7005D015E04FF0FF3004B0FB
:1003C000BDE8F09F2068011D2160D0F800800AE0A0
:1003D0005FEACA7001D108F8015BA169761C7F1E33
:1003E000019888470546002F1ADD681C18D0B9F11E
:1003F000000F0DD0E81705EBD060421120F01F0070
:1004000059F822102A1A012090400142E0D107E059
:10041000BBF1000FDCD1216A284688470028D7D0DD
:10042000E16901988847BBF1000F07D1002E05DD77
:100430005FEACA7002D1002188F80010A068B842B3
:1004400003DDBBF1000F03D017B16FF00100B6E779
:100450003046B4E72DE9FE4F804681EA0300C00F25
:100460000C46009021F0004123F00045B8EB02005B
:10047000A94105D24046214690461C460B460246FD
:1004800023F00040104347D0270DC7F30A00C3F301
:100490000A510290401A019040286BDAC3F313000E
:1004A00040F4801B0098924620B10023D2EB030A4F
:1004B00063EB0B0B01985946C0F14002504600F027
:1004C00033F906460D4650465946019A00F03BF96D
:1004D00010EB08006141002487EA115284EAE773B7
:1004E0001A4340D0009A62B3019A012A4FEA075298
:1004F00015DC001B61EB02014FF0004202EA0752DB
:10050000CDE90042001C41F5801132462B4600F037
:100510007EF903B0BDE8F08F40462146F9E7001BA5
:1005200061EB0201001C41F5801300185B412018AB
:10053000A2F5001747EB030140EAD570B6196D41EB
:1005400011E06D084FEA360645EAC0754FEA0752DA
:10055000001B61EB0201001C41F5801149084FEAC4
:1005600030000019514132462B4603B0BDE8F04F30
:1005700000F03EB90098012240000023D0EB0202B7
:1005800063EBE073009821464FEAE074B8EB00009B
:1005900061EB0401E9E783F000435BE781F0004190
:1005A00058E72DE9F04D81EA030404F0004B21F0F7
:1005B000004514464FF0000A23F0004150EA0502BE
:1005C00020D054EA01021DD0C5F30A570246C5F3F4
:1005D0001303C1F31300C1F30A5640F4801543F42A
:1005E0008013A7EB0608101BD64608F2FD3873EB04
:1005F000050002D308F1010801E092185B41B8F14F
:10060000000F03DA00200146BDE8F08D00204FF412
:100610008011064684460EE0171B73EB050705D3D1
:10062000121B63EB050306434CEA010C49084FEA31
:10063000300092185B4150EA0107EDD152EA030005
:1006400012D082EA040083EA0501084305D0101B9A
:10065000AB4106D20122002306E000224FF0004306
:1006600002E06FF0010253101AEB06004CEB085148
:1006700010EB0A0041EB0B01BDE8F04D00F0B8B8FB
:100680000EB540F2334102910021CDE900110A4636
:100690000B4600F0BCF803B000BD30B50B46014678
:1006A00000202022012409E021FA02F59D4205D311
:1006B00003FA02F5491B04FA02F52844151EA2F1BB
:1006C0000102F1DC30BD2DE9F05F054600209246C5
:1006D0009B4688460646814640241BE02846414604
:1006E00047462246FFF742FD53465A46C01A9141FB
:1006F00010D311461846224600F016F82D1A67EB63
:1007000001084F4622460120002100F00DF817EBAA
:1007100000094E41201EA4F10104DFDC48463146A9
:100720002A464346BDE8F09F202A04DB203A00FA1F
:1007300002F1002070479140C2F1200320FA03F338
:10074000194390407047202A06DBCB17203A41FA24
:1007500002F043EAE07306E041FA02F3D040C2F14E
:10076000200291400843194670473A2800D2303899
:1007700020F02002412A01D3A2F13700884201D3A0
:100780004FF0FF3070470000026811441378016099
:1007900018467047D1600449516104491162002133
:1007A0001161114600F03CB989070008150A0008DC
:1007B000426842B1016811F8013B23B1521EC0E901
:1007C0000012184670470121C160881E70474268B8
:1007D0005AB1C368016843B983688B4205D0491E8A
:1007E000521CC0E90012002070474FF0FF307047E4
:1007F00010B5141E73F1000408DA401C41F1000129
:1008000092185B411A4301D120F0010010BD2DE97F
:10081000F04D92469B4611B1B1FA81F202E0B0FA76
:1008200080F220329046FFF77FFF04460F4640EAF1
:100830000A0041EA0B0153465A46084313D01146B9
:1008400053EA010019D0C8F140025046FFF78EFC70
:1008500005460E46504659464246FFF765FF084397
:1008600005D0012004E020463946BDE8F08D002087
:10087000054346EAE0762C4337430A986305E40AC9
:10088000A0EB08000022FD0A44EA47540A3002D5D2
:1008900000200146E9E7010510196941DDE9084535
:1008A00000196941BDE8F04DA2E72DE9FE4F81EA4C
:1008B000030404F0004421F0004100944FF0000BC9
:1008C00023F0004350EA01045ED052EA03045BD0F7
:1008D000C3F30A54C1F30A552C44A4F2F33401942F
:1008E000A0FB0254C1F3130141F48011C3F31303BD
:1008F00043F4801301FB024400FB034E840A970A71
:1009000044EA815447EA8357A4FB076802958D0A9D
:1009100005FB07854FEA932C04FB0C542705029D29
:100920004FEA065847EA1637B5EB08056EEB070C99
:10093000870E920E47EA811742EA8312A7FB020153
:10094000B6EB0B0164EB00042B0D43EA0C335E188D
:1009500044EB1C50DA465146E7FB0201C5F3130491
:100960004FEA0B3343EA14534FEA0432019C43EA43
:100970000603A4F10C040294009CCDE900B4FFF737
:1009800046FF03B0BDE8F08F00200146F9E7C1F350
:100990000A52C1F3130140F2FF3341F480119A422D
:1009A00002DA00200146704740F233439A42A2F235
:1009B000334202DC5242FFF7D9BBFFF7B5BE00005D
:1009C00030B5041E71F1000404DB4FF000444042D6
:1009D00064EB0101141E73F1000405DB1C464FF0AB
:1009E0000043524263EB0403994208BF904230BD7A
:1009F000064C074D06E0E06840F0010394E807006C
:100A000098471034AC42F6D3FFF796FBCC6400084D
:100A1000EC640008C0B24FF4F05100F099B9000046
:100A20002DE9F34F8BB04FF0000801F10C000C469C
:100A30004FF0010B46460DF1080A01906269012151
:100A400001989047051E2DD0252D2CD0216A88476E
:100A5000C0B16269012101989047216A8847002846
:100A6000F7D1411E62690198904700E0761CA169A8
:100A70000B988847216A88470028F7D1E1690B98CD
:100A80008847DBE7A1690B9888470746A84201D150
:100A9000761CD3E7E1690B9888477F1C02D1B8F137
:100AA000000F6FD047E1002762693D463946019843
:100AB00090472A2804D162690121019890470125B5
:100AC000DFF888926269012101989047A0F1300116
:100AD0000A290AD24F45E5DC07EB870100EB410705
:100AE000303FDFD445F01005ECE7E90601D46FF0A4
:100AF00000476C280AD04C2814D0682815D06A28E2
:100B00000DD074281CD07A281AD01DE0626901210A
:100B1000019890476C2802D045F0040514E045F098
:100B200002050DE045F020050AE062690121019807
:100B30009047682802D045F0080505E045F40065B7
:100B40006269012101989047C4E9015765283DD0A9
:100B500019DC58287AD00CDC452837D004DC25284D
:100B600026D0412831D131E046282FD047282CD13A
:100B70002CE05B2877D0612828D063287CD06428BB
:100B800023D15AE0D1E06F2848D008DC66281DD078
:100B900067281BD0692821D06E2816D127E070283D
:100BA00045D0732868D0752847D078280DD14DE0FE
:100BB000A1690B988847054625283FF469AFE1698C
:100BC0000B9888476D1C3FF46AAFB4E023466A4631
:100BD0006FF001000B99AFF300809FE045F04000FB
:100BE0006060A80723464FF0000236D43EE0E807D5
:100BF0007FF447AF2068011D21600068290501D5F9
:100C000006701BE7290701D5068017E7A90703D55A
:100C1000F117C0E9006111E706600FE745F04000F9
:100C20006060A80723464FF0080216D41EE040F685
:100C30000E0125EA0100606016E045F040006060AA
:100C4000A80723464FF00A0207D40FE045F0400002
:100C50006060A80708D5234610226FF001000B99A9
:100C6000AFF300805AE007E0234610226FF0010046
:100C70000B99FFF7D9FA51E04FF000094F464B4668
:100C8000632802D05B2807D041E02079C00601D458
:100C90000120A06001273AE0626901210198904794
:100CA0005E2805D14FF001096269494601989047D5
:100CB000216939B900210A46534643F82120491CCD
:100CC0000829FADBB0B3216969B9C11700EBD16219
:100CD00053110AEB830122F01F02821A01200B68D4
:100CE000904003430B6062690121019890475D28A1
:100CF000E8D1B9F1000F09D00020514651F8202069
:100D0000D24341F82020401C0828F7DB02AB2246E2
:100D100000976FF001000B99FFF72CFB00280CDA0D
:100D2000401C08D1BBF1000F05D04FF0FF300DB0D3
:100D3000BDE8F08FFFE74046F9E7E90701D108F188
:100D4000010806444FF0000B78E60000CCCCCC0C38
:100D50007F2801D9002208E0064A02EB5002C007B2
:100D6000127800D1120902F00F02012090400840D1
:100D7000704700008A640008FEE7000070B509486B
:100D80000025012645800580841E064803F0A4FA4C
:100D900028B1667020780028F7D1002070BD25703A
:100DA000FBE7000050000020826800213C2A03DBA2
:100DB0004268521CC0E9012142683C2A03DB0268F8
:100DC000521CC0E900210268182A00DB016070474C
:100DD000024901200870B42101F01EBF5400002018
:100DE00070B5002400F02AF84FF40065124E04E0BC
:100DF000641CE4B2012003F041F92946304600F0BA
:100E0000E3FA10B1642CF3D30FE0642C0DD200246C
:100E100004E0641CE4B2012003F030F929463046B6
:100E200000F0D2FA18B1642C04D3012070BD642CF8
:100E3000EFD3FAE7002070BD002001401FB54FF44A
:100E400000600090002001906946024800F0C0F95F
:100E50001FBD0000002001401FB54FF4006000904E
:100E600001200190032003906946024800F0B0F988
:100E70001FBD00000020014070B500244FF4006544
:100E8000134E04E0641CE4B2012003F0F7F8294695
:100E9000304600F099FA08B1642CF3D3002404E042
:100EA000641CE4B2012003F0E9F82946304600F062
:100EB0008BFA08B9642CF3D3282003F0DFF8294615
:100EC000304600F081FA002800D0012070BD0000FB
:100ED0000020014070B5002004464006050EFFF7D3
:100EE000CBFF641C2843E4B2082CF6D370BD2DE977
:100EF000FC410D46064600F027F8FFF771FF10B1E0
:100F00000120BDE8FC8100246F46FFF7E3FF385560
:100F1000641CE4B2052CF8D39DF800309DF8012044
:100F20009DF802109DF803009C180F183C449DF892
:100F30000470BC4205D102EB03222A8000EB0120A1
:100F400030800020DDE7000070B5FFF785FF0A4D17
:100F50004FF4006400222146284600F042FA142093
:100F600000F024F901222146284600F03AFABDE8B3
:100F700070401E2003F082B800200140704700003E
:100F80001CB51822132946D2DFE801F00A0C0F1213
:100F900015171A1D202225282B2D303336383B00FB
:100FA0001E4930E01D4948312DE01C4990312AE0AE
:100FB0001A49D83127E01A4925E01949483122E079
:100FC000174990311FE01649D8311CE015491AE045
:100FD0001449483117E01349903114E01149D831D0
:100FE00011E011490FE0104948310CE00E499031F1
:100FF00009E00D49D83106E00C4904E00B494831BD
:1010000001E00A499031CDE9002100221823114660
:1010100003F0B8FA1CBD0549D831F4E7D45E0008E6
:10102000F45F00081461000834620008546300088B
:1010300072B6FEE710B590F821100022022905D003
:101040000421816380F82020012010BD01680B6815
:1010500023F00E030B6001680B6823F001030B60A3
:1010600090F84030C46B012101FA03F3636080F80B
:10107000211080F82020104610BD00002DE9F05FFF
:1010800090F821100024022903D004218163012457
:1010900085E001680A6822F00E020A6001680A68A9
:1010A00022F001020A603F4E3E4FB215DFF8F4C055
:1010B000DFF8F090DFF8ECA0DFF8E8B0DFF8E4E06C
:1010C0000168783F13011502ACF1640CA9F15009D5
:1010D000AAF13C0AABF1280BAEF1140E4FF48018C4
:1010E000B14227D9B9420ED0614512D049451DD031
:1010F000514518D0594518D0714501D1424615E0E7
:10110000294EB14201D1012210E0274E1436B142DE
:1011100001D110220AE0244E2836B14206D0224ADC
:101120003C32914201D11A4600E02A461E49091F6D
:101130000A602BE0B94213D0614517D0494522D04F
:1011400051451DD059451DD0714501D142461AE087
:10115000B14202D14FF0807215E0134EB14201D17D
:10116000012210E0104E1436B14201D110220AE0E3
:101170000D4E2836B14206D00B4A3C32914201D185
:101180001A4600E02A46074980394A60012180F862
:101190002110002180F82010416B01B188472046C2
:1011A000BDE8F09F800002400804024070B504468C
:1011B00000F01CF90546601C02D004480078044485
:1011C00000F014F9401BA042FAD370BD00000020CB
:1011D0002DE9F84FDFF8C891002409F1040A0AF15B
:1011E000040B23460F270BF1040ED1E00125A54087
:1011F00006EA0502AA4276D1DFF8A8C14E68A6EB3E
:101200000C0866452BD00DDC032E34D005DC36B33C
:10121000012E19D0022E2FD11BE0112E16D0122E26
:101220002AD119E0B8F5881F19D006DCB8F5803F3F
:1012300015D0B8F5801F1FD111E0B8F5001F0ED0F2
:10124000B8F5041F18D10AE0CB6815E0CB681B1D68
:1012500012E0CB6808330FE0CB680C330CE08B68EE
:101260002BB1012B4FF0080303D0456104E00423A8
:1012700002E0056100E00023FF2A01D8064601E0F4
:1012800000F104064FEA840501D9A5F12005D6F83E
:10129000008007FA05FC28EA0C0803FA05F548EA7D
:1012A0000508C6F800804D68ED0070D53E4DAE696A
:1012B00046F00106AE61AD6924F0030605F00105B4
:1012C00000953A4D06EB050CDCF80850A607360FE2
:1012D00007FA06F825EA0805DFF8D480404503D16F
:1012E0004FF0000825E052E0DFF8C880404502D109
:1012F0004FF001081DE0DFF8C080404502D14FF0FB
:10130000020816E0DFF8B480404502D14FF0030830
:101310000FE0DFF8AC80404502D14FF0040808E050
:10132000DFF8A080404502D14FF0050801E04FF002
:10133000060808FA06F848EA0508CCF808804D685F
:10134000D9F80060ED034D4601D5164300E0964301
:101350002E604D68DAF80060AD03554601D516439E
:1013600000E096432E604D68DBF80060ED025D46BC
:1013700001D5164300E096432E604D68DEF800600C
:10138000AD02754601D5164300E096432E60641CFD
:101390000A681646E2407FF429AFBDE8F88F0000E6
:1013A0000004014000001110001002400000014044
:1013B00000080140000C01400010014000140140F1
:1013C00000180140001C01408068084000D0012046
:1013D0007047C26821EA02030A4043EA0241016100
:1013E00070470AB1016170470904FBE70148806852
:1013F000704700000000002070B5040025D094F86C
:101400003D00002520B984F83C50204600F04EF9FC
:10141000242084F83D002068016821F0010101606A
:101420002068016841F4004101602068016821F4EE
:101430000041016000F09CFA4D4A6168914201D878
:101440004C4900E04C49884201D2012070BD4B4913
:101450002368B0FBF1F15E6826F03F060E435E6044
:101460006368934206D94FF4967359434FF47A73E5
:10147000B1FBF3F12368491C1E6A26F03F06314395
:1014800019626168914210D84900401EB0FBF1F228
:10149000521CC2F30B02042A01D2042022E0B0FB4A
:1014A000F1F0401CC0F30B001CE0A268F2B301EBAA
:1014B000C10303EB0116431EB3FBF6F35B1C43F4BD
:1014C00080431B0549D092B301EBC10202EB01112D
:1014D000401EB0FBF1F0401CC0F30B0040F4804014
:1014E00040F400402168CA694CF6FF739A431043E8
:1014F000C861D4E9071001432068026822F0C002E5
:1015000011430160D4E9030101432068826848F275
:10151000FF339A4311438160D4E9050108432168F0
:10152000CA6822F0FF021043C86001E00EE016E036
:101530002068016841F0010101602564202084F8E1
:101540003D00256384F83E50002070BD01EB41064C
:10155000431EB3FBF6F35B1CB3E70120C2E701EBCC
:101560004101401EB0FBF1F0401CC0F30B00B7E797
:10157000A086010080841E0000093D0040420F004B
:101580002DE9F84F1F4690468A460446DDF828901C
:10159000FFF72CFF054694F83D0020287FD1192342
:1015A000012240492046009501F0EEF8002876D14E
:1015B00094F83C00012872D0012084F83C00206897
:1015C0000168C90703D1016841F001010160206889
:1015D000016821F400610160212084F83D001020A1
:1015E00084F83E0000262664C4F824806785608D58
:1015F00020852D48E0622B464A465146204601F0A0
:101600004FF890B9206841698069009036E02A4619
:101610004946204601F037F950B1206C042804D126
:101620002068016841F4007101600120BDE8F88F75
:10163000606A216800780861606A401C6062618DA0
:10164000491E6185218D491E89B221852268536911
:10165000DB435B070BD451B100781061606A401C1A
:101660006062608D401E6085208D401E20852A4668
:101670004946204601F062F80028CED1208D00288E
:10168000C5D154F83D0B016841F400710160202080
:1016900004F81E09E67766770020C7E7FFE7022017
:1016A000C4E70000020010000000FFFF10B586B084
:1016B0000021009101910291039100680F49884235
:1016C0001AD10F4CA06940F00800A061A0696946DA
:1016D00000F008000490C020009012200190032028
:1016E00003900848FFF774FDE06940F40010E061E2
:1016F000E06900F40010049006B010BD00540040F2
:1017000000100240000C0140024881680278114438
:101710008160704700000020074810B5016841F063
:1017200010010160032000F075F80F2000F006F8AA
:1017300000F024F8002010BD0020024070B50D4DCF
:1017400004464FF47A712878B1FBF0F00A49096831
:10175000B1FBF0F000F0F2FA48B9102C07D20022E9
:101760002146501E00F036F800206C6070BD01204C
:1017700070BD0000000000200C0000200C4808B5DF
:10178000816941F001018161816901F001010091EC
:10179000C16941F08051C161C06900F08050009082
:1017A0000448416821F0E06141F00071416008BDEA
:1017B0000010024000000140002809DB00F01F0279
:1017C000012191404009800000F1E020C0F80011A3
:1017D00070470000F0B40E4B1B680C46C3F30223A5
:1017E000C3F10705042D00D90425191D072901D2CD
:1017F000002300E0DB1E012606FA05F1491E214008
:1018000099409E40761E16403143F0BC01F0A0BFC7
:101810000CED00E0064900F0070208684FF6FF03F0
:10182000184040EA0220034A104308607047000055
:101830000CED00E00000FA052DE9F0470F46050029
:1018400061D0434E306800F00700B84209D23068DA
:1018500020F0070038433060306800F00700B842DD
:1018600051D128683B4C810712D5400703D56068E9
:1018700040F4E06060602878000703D5606840F4B9
:10188000605060606068A96820F0F0000843606004
:101890002878C00728D06868012810D0216802285D
:1018A00010D0890700292EDA616821F00301014375
:1018B0006160FFF79BFD804641F288390DE02168A9
:1018C0008903EFE78901EDE7FFF790FDA0EB080141
:1018D000494502D90320BDE8F0876068696800F0D7
:1018E0000C00B0EB810FEFD1306800F00700B84278
:1018F0000BD9306820F0070038433060306800F0C2
:101900000700B84201D00120E5E72878400705D557
:101910006068E96820F4E0600843606028780007A8
:1019200006D56068296920F4605040EAC100606013
:1019300000F03EF86168084AC1F30311515CC840E9
:101940000649086006480068FFF7F8FE0020C2E775
:1019500000200240001002400E5200080C0000203F
:101960000400002001480068704700000C000020BF
:101970000448054900684968044AC1F30221515CE2
:10198000C84070470C000020001002401E520008A2
:101990000448054900684968044AC1F3C221515C02
:1019A000C84070470C000020001002401E52000882
:1019B00012A185B00FC98DE80F0014A0144A006869
:1019C00004905168134801F00C03042B10D0082B2D
:1019D0000ED1C1F38343C9031DF803000AD5516832
:1019E00004AAC1F34041515C0A4A5043B0FBF1F0F4
:1019F00005B0704708494843FAE7000002030405B0
:101A0000060708090A0B0C0D0E0F1010010200004A
:101A10000010024000127A0000093D002DE9F84F45
:101A2000040070D02078C04DC00749D06868C0F36A
:101A30008100012807D06868C0F38100022809D11D
:101A40006868C00306D52868800339D56068002817
:101A5000E7D035E06068B0F5803F0BD010B1B0F54D
:101A6000A02F11D0286820F480302860286820F446
:101A7000802002E0286840F480302860606890B1DF
:101A8000FFF7B4FC06460AE0286840F4802028608E
:101A9000F0E700BFFFF7AAFC801B642873D8286812
:101AA0008003F7D50CE0FFF7A1FC064605E000BF78
:101AB000FFF79CFC801B6428F0D828688003F7D4CB
:101AC00020789A4E80074FF001094FF0000839D571
:101AD000686810F00C0F07D06868C0F38100022816
:101AE00009D16868C00306D42868800714D5206926
:101AF000012808D110E02069B0B1C6F80090FFF7C6
:101B000075FC074605E00AE1FFF770FCC01B0228E0
:101B1000C4D828688007F7D52868616920F0F800E4
:101B200040EAC10028600DE0C6F80080FFF75EFCC7
:101B3000074604E0FFF75AFCC01B022823D8286898
:101B40008007F7D4207800072CD57948A169D9B14E
:101B5000C0F80090FFF74AFC074604E0FFF746FC98
:101B6000C01B02280FD8686A8007F7D571484FF468
:101B7000FA510068B0FBF1F0009000BF0098411EE0
:101B80000091FAD20EE080E0C0F80080FFF72EFC52
:101B9000074604E0FFF72AFCC01B022875D8686AD4
:101BA0008007F7D42078400760D5E8690027C00097
:101BB00008D4E86940F08050E861E869012700F046
:101BC000805000905C480168C90513D401688346C1
:101BD00041F480710160FFF709FC824606E000BF16
:101BE000FFF704FCA0EB0A0064284ED8DBF80000E5
:101BF000C005F5D5E06801280AD008B1052813D042
:101C0000286A20F001002862286A20F0040002E01F
:101C1000286A40F001002862E06841F2883B98B1F0
:101C2000FFF7E4FB82460BE0286A40F004002862DC
:101C3000EEE700BFFFF7DAFBA0EB0A0159455AD8DF
:101C4000286A8007F6D50CE0FFF7D0FB824605E056
:101C5000FFF7CCFBA0EB0A0159454CD8286A800756
:101C6000F6D41FB1E86920F08050E861E06988B3DC
:101C70006968C1F38101022944D00228C6F8608056
:101C800004D0FFF7B3FB044638E034E0FFF7AEFBC7
:101C9000074604E0FFF7AAFBC01B02282BD82868E0
:101CA0008001F7D4206AB0F5803F05D16868A1684B
:101CB00020F4003008436860D4E9080108436968EB
:101CC00021F4741108436860C6F86090FFF78EFB3A
:101CD000044606E025E000BFFFF788FB001B022852
:101CE00009D828688001F7D51BE000BFFFF77EFB0D
:101CF000001B022802D90320BDE8F88F2868800164
:101D0000F4D40EE00128F7D06868226A00F480312C
:101D1000914204D1616A00F47010884201D0012020
:101D2000EAE70020E8E7000000100240000042421D
:101D3000800442420C0000200070004010B5401E9C
:101D4000B0F1807F01D3012010BD4FF0E02460612D
:101D50000F21601701F0FCFC0020A061072020612A
:101D6000002010BD7047704770B590F83C20012AE4
:101D70002CD0012480F83C40022280F83D200368EA
:101D80005A689D6822F070060A6832435A60104B08
:101D900002689A420ED00F4B9A420BD0B2F1804F9C
:101DA00008D00D4B9A4205D00C4B9A4202D00C4BF6
:101DB0009A4204D1496825F080031943916080F864
:101DC0003D40002180F83C10084670BD022070BDE7
:101DD000002C014000340140000400400008004095
:101DE000000C004010B5040003D094F83D0010B181
:101DF00007E0012010BD002084F83C00204600F0E0
:101E00001FF8022084F83D00211D206801F082FAAD
:101E1000012084F8460084F83E0084F83F0084F8EE
:101E2000400084F8410084F8420084F8430084F8BC
:101E3000440084F8450084F83D00002010BD0000F7
:101E400008B50068B0F1804F12D10A48C16941F06D
:101E50000101C161C069002200F00100009011463B
:101E60001C20FFF7B7FCBDE808401C20FFF7A4BC0E
:101E700008BD00000010024090F83D10012901D07B
:101E800001207047022180F83D100168CA6842F0C5
:101E90000102CA6000680E4988420ED00D4988428E
:101EA0000BD0B0F1804F08D00B49884205D00B49C8
:101EB000884202D00A49884204D1816801F00701B2
:101EC000062903D0016841F001010160002070473C
:101ED000002C014000340140000400400008004094
:101EE000000C004070B5044690F83C00012817D063
:101EF000012584F83C50022084F83D002068826867
:101F000022F0770222F47F4282600868502830D0A5
:101F10000DDC20284DD005DC98B310283BD148E0DB
:101F2000022070BD302844D0402834D139E06028E8
:101F300028D0702806D0B0F5805F2CD0B0F5005FB7
:101F400029D10AE0CB68D1E90121206801F028FA03
:101F50002068816841F0770109E0CB68D1E901216F
:101F6000206801F01DFA2068816841F48041816099
:101F700011E0CA684968206801F024FA50212068FD
:101F800007E016E0CA684968206801F02CFA602171
:101F9000206801F00FFA84F83D50002084F83C00DE
:101FA00070BDCA684968206801F00CFA40212068B9
:101FB000EFE7226801461046EBE7704770B504462C
:101FC000006801694FF00005C943890715D4C1684D
:101FD000C943890711D4E91E0161012020772068D7
:101FE00080698007204602D0FFF7E7FF04E000F099
:101FF00098F8204600F096F8257720680169C943D3
:10200000490717D4C168C943490713D46FF00401C5
:102010000161022020772068806910F4407F20460B
:1020200002D0FFF7CAFF04E000F07BF8204600F082
:1020300079F8257720680169C943090716D4C16872
:10204000C943090712D46FF0080101610420207709
:102050002068C0698007204602D0FFF7AEFF04E089
:1020600000F05FF8204600F05DF8257720680169F0
:10207000C943C90617D4C168C943C90613D46FF050
:1020800010010161082020772068C06910F4407FAA
:10209000204602D0FFF791FF04E000F042F820460E
:1020A00000F040F8257720680169C943C90708D1C5
:1020B000C168C943C90704D1891E0161204600F0E7
:1020C00033F820680169C943090609D4C168C943C6
:1020D000090605D46FF0800101612046FFF742FE3A
:1020E00020680169C943490609D4C168C943490642
:1020F00005D46FF040010161204600F02DF8206802
:102100000169C94389060BD4C168C943890607D44C
:102110006FF0200101612046BDE87040FFF723BE4B
:1021200070BD70477047000010B508490068096825
:1021300088420AD1064801F068F900F069FFBDE85D
:10214000104020210348FFF744B910BDC40000200F
:1021500078080020000C014070477047704700006D
:10216000F8B5026804461068D168536910F00F0F83
:102170004FF0000553D003F0010601F49077374388
:102180005FD0C20705D0CA0503D5226C42F0010218
:102190002264420705D5DA0703D0226C42F002021E
:1021A0002264820705D5DA0703D0226C42F00402CC
:1021B0002264020707D501F02002324303D0226CCB
:1021C00042F008022264226C002A34D0800604D532
:1021D000880602D5204601F065F920684069216C27
:1021E000C0F38010090700D430B3204601F042F953
:1021F0002068416949061BD5416921F040014161D0
:10220000A06BA8B158494163A06BFEF737FF0028C7
:1022100011D0A06B416B01B0BDE8F04008478306C8
:102220000FD58B060DD52046BDE8F84001F03AB930
:102230002046FFF793FFF8BD2046FFF78FFF256488
:10224000F8BD266B2023012E52D1C60650D5CE06EE
:102250004ED5106850680090506940062AD5A16B91
:10226000086840680004000CEAD0A68D8642E7D9D1
:10227000E0858869202818D0D06820F48070D0606C
:102280002068416921F0010141612068416921F024
:102290004001416184F83E3025632068C16821F027
:1022A0001001C160A06BFEF7C5FEA08DE18D401A44
:1022B00081B219E0A08DE18D401A81B2E08D002835
:1022C000BED00029BCD0D06820F49070D0602068C7
:1022D000426922F00102426184F83E3025632068A1
:1022E000C26822F01002C2602046FFF736FFF8BD38
:1022F00005062BD50D0629D594F83D002128F6D1E9
:10230000A068B0F5805F01D12069B0B1206A411C9E
:102310002162216800784860E08C401E0004000CB7
:10232000E084E4D12068C16821F08001C1602068A8
:10233000C16841F04001C160F8BD206A0088C0F367
:1023400008005060206A801C2062E5E74006F3D553
:102350004806F1D5D168204621F04001D16084F8CB
:102360003D3000F084F9F8BD6534000870B5040014
:1023700004D094F83D00002510B106E0012070BDA6
:1023800084F83C50204600F023F8242084F83D00D7
:102390002068C16821F40051C160204601F0DEF8D8
:1023A0002068016921F4904101612068416921F0B0
:1023B0002A0141612068C16841F40051C16025646F
:1023C000202084F83D0084F83E00002070BD00000D
:1023D000F0B585B00024009401940294039403683E
:1023E000424F022042490322424D4602BB4225D1C0
:1023F0008B6943F480438B618B6903F480430493BE
:102400008B6943F004038B618969039201F0040135
:1024100004910102CDE9001069462846FEF7D8FE76
:10242000CDE90064694628460294FEF7D1FE0022F9
:1024300011462520FFF7CEF9252028E02E4FBB427C
:1024400029D1CB6943F40033CB61CB6903F400336A
:1024500004938B6943F004038B618969039201F053
:10246000040104910421CDE9001069462846FEF7D5
:10247000AFFE0820CDE90004694628460294FEF725
:10248000A7FE002211462620FFF7A4F92620FFF719
:1024900093F905B0F0BD194DAB42FAD1CB6943F4C5
:1024A0008023CB61CB6903F4802304938B6943F0D1
:1024B00008038B618969124D01F00801CDE9032100
:1024C000CDE9006069462846FEF782FEE814CDE9B2
:1024D0000004694628460294FEF77AFE002211465F
:1024E0002720FFF777F92720D1E7000000380140C7
:1024F0000010024000080140004400400048004035
:10250000000C014090F83E30202B0ED159B152B151
:1025100090F83C30012B08D0012380F83C30002398
:10252000036301F077B80120704702207047000074
:1025300070B5064600681B4901251B4C884213D123
:10254000601C1A4A616800785054491C61600A286E
:1025500000D12570402901D300F05CFF124901220F
:10256000491C1348FFF7CEFF12493068884217D143
:102570000D480E4AC01C40320178A0681154401C1E
:10258000A0600A2900D1A570402801D300F056FFB1
:10259000BDE8704004490122C91C0748FFF7B2BFDB
:1025A00070BD0000003801402C000020840800208D
:1025B0000C01002000440040500100202DE9F843A8
:1025C000044690F83D001F4616460D4620284CD183
:1025D000C5B1BEB194F83C00012846D0012084F872
:1025E0003C004FF00008C4F84080212084F83D00F2
:1025F000FEF7FCFEA6848146E684A068B0F5805F05
:1026000003D004E00120BDE8F883206928B12E46FC
:102610005FF0000584F83C800EE00026FAE7802198
:10262000204601F012F8A0B9AEB116F8010B2168EE
:102630004860E08C401EE084E08C4B464FF0000286
:1026400000970028EBD14FF04001204600F0FDFF3D
:1026500030B10320D7E735F8020BC0F30800E6E7F6
:10266000202084F83D000020CDE70220CBE7704712
:10267000FEE701684A69D24352050FD46FF48062C5
:102680004A61002140F8301F2022427381730269A1
:1026900042F004020261017301207047002070477C
:1026A000F8B50446C06A1E460D461746082807D0EE
:1026B000012805D010F5803F02D0206B122804D1EC
:1026C0002068016841F480710160134600224FF0D8
:1026D00001112046009600F057F840B120680068CC
:1026E000C00502D54FF4007020640320F8BD2069B6
:1026F000B0F5804F0ED00620216800EAD51040F0DA
:10270000F000086133463A460B49204600F070F865
:1027100078B902E005F0FE0000E0E8B22168086147
:10272000054933463A46891F204600F061F80028E3
:10273000DCD00120F8BD00000800010070B516468D
:102740000D4604460DE02046FFF793FF08B1012037
:1027500070BD681C05D0FEF749FE801BA84207D853
:1027600035B120684069C0434007ECD4002070BDFB
:10277000002044F8300F20216173A073216941F0DB
:10278000200121612073E2E72DE9F0471E469046C3
:102790000D460446C1F30747DDF8209008E0701CA1
:1027A00006D0FEF723FEA0EB0900B0420FD876B1A9
:1027B0002068012F18D0806925EA00000004000C71
:1027C00014D000214145EAD00020BDE8F087002068
:1027D00044F8300F20216173A073216941F020017A
:1027E000216120730120F0E74069E5E70121E9E775
:1027F0002DE9F0479A4691460E46044600254FF0D3
:102800002008C1F3074725E020684069C043400520
:1028100014D42068016841F40071016021686FF4EC
:1028200080604861256384F83D8084F83E50206CC8
:1028300040F00400206484F83C501FE0B9F1FF3FF1
:1028400008D0FEF7D3FDA0EB0A0149450CD8B9F139
:10285000000F09D02068012F13D0806926EA0000FC
:102860000004000C0BD0CFE744F8305F84F80D80F3
:10287000A573206940F02000206125730120BDE888
:10288000F0874069EAE770B516460D4604460DE04C
:102890002046FFF7EEFE08B1012070BD681C05D090
:1028A000FEF7A4FD801BA84207D835B12068406917
:1028B000C0430006ECD4002070BD002044F8300F67
:1028C00020216173A073216941F0200121612073EF
:1028D000E2E700007CB50546EF208DF80000154CBE
:1028E00001208DF801006168080E8DF80200080CC7
:1028F0008DF80300080A8DF8040007208DF80510F4
:102900008DF8060000268DF8076026700BE0012088
:10291000FEF74CFC207830B1267069460648FDF77A
:1029200047FC002804D16D1E2D042D0CEFD1002092
:102930007CBD00003C0000200E0900202DE9F04F76
:1029400085B0002445480094019402940394816961
:1029500041F040018161816901F040010491816988
:1029600041F010018161816901F0100104918169D8
:1029700041F004018161816901F0040104918169E0
:1029800041F008018161816901F0080104918169C8
:1029900041F020018161816901F020010491816988
:1029A00041F4807181618069DFF8B49000F4807037
:1029B0000490002220214846FEF713FDDFF8A4A072
:1029C00000220F215046FEF70CFDDFF89CB04FF4BB
:1029D0000067002239465846FEF703FD4FF4907811
:1029E000002241462148FEF7FCFC2020012502265A
:1029F000CDE90005CDE9024669464846FEF7E8FB09
:102A00006803CDE90004694619480294FEF7E0FB2B
:102A10000F20CDE90005CDE9024669465046FEF794
:102A2000D7FB8020CDE90004694650460294FEF7AA
:102A3000CFFB00970396CDE9015469465846FEF74F
:102A4000C7FBCDF800800396CDE9015469460748DD
:102A5000FEF7BEFB05B0BDE8F08F0000001002409D
:102A6000001801400014014000200140000C01400A
:102A7000001001400D4810B50B4901600C49416040
:102A800000214FF480428160C0E9031241618161FD
:102A9000C1610162FEF7B0FC002803D0BDE8104020
:102AA000FEF7C6BA10BD00000054004070000020C0
:102AB000A086010010B586B0002417480094019448
:102AC0000294039404944FF080410594016041F610
:102AD0001F41C0E9011442F20F71C0E903148021C3
:102AE0008161FFF77FF908B1FEF7A2FA4FF4805039
:102AF000009069460848FFF7F5F908B1FEF798FA23
:102B0000049404A904480594FFF72EF9002801D085
:102B1000FEF78EFA06B010BDC40000200C4810B5B8
:102B20000A4901604FF4E1314160002181600C22CB
:102B3000C160C0E904128161C161FFF717FC002880
:102B400003D0BDE81040FEF773BA10BD0038014055
:102B50000C0100200C4810B50A4901604FF41651D1
:102B60004160002181600C22C160C0E904128161D2
:102B7000C161FFF7FBFB002803D0BDE81040FEF762
:102B800057BA10BD00440040500100200C4810B559
:102B90000A4901604FF461414160002181600C22CB
:102BA000C160C0E904128161C161FFF7DFFB002849
:102BB00003D0BDE81040FEF73BBA10BD004800400E
:102BC0009401002001B5FF23012269460348FFF765
:102BD000F5FC002800D0012008BD00009401002071
:102BE000FEE7000010B50B4C002208212046FEF73E
:102BF000F8FB002204212046FEF7F3FB002202210D
:102C00002046FEF7EEFB20460022BDE810400121E1
:102C1000FEF7E7BB0014014070B58E012D25012899
:102C20004FF0000404D00DE000F014F8641CA4B2CE
:102C300096FBF5F0A042F7DC08E000BF00F044F896
:102C4000641CA4B296FBF5F0A042F7DCBDE870402E
:102C5000FFF7C8BF10B51B4C012211462046FEF7F6
:102C6000C0FB0320FEF7A2FA002201212046FEF756
:102C7000B8FB012202212046FEF7B3FB0320FEF73A
:102C800095FA002202212046FEF7ABFB0122042127
:102C90002046FEF7A6FB0320FEF788FA0022042157
:102CA0002046FEF79EFB012208212046FEF799FBF5
:102CB0000320FEF77BFA20460022BDE810400821E1
:102CC000FEF78FBB0014014010B51B4C01220821F8
:102CD0002046FEF786FB0320FEF768FA0022082153
:102CE0002046FEF77EFB012204212046FEF779FBF9
:102CF0000320FEF75BFA002204212046FEF771FB59
:102D0000012202212046FEF76CFB0320FEF74EFA5B
:102D1000002202212046FEF764FB012211462046D4
:102D2000FEF75FFB0320FEF741FA20460022BDE8D4
:102D300010400121FEF755BB00140140FEE70000E2
:102D4000024900200870B421FFF766BF540000203C
:102D500010B5044600F08AFA00F066FA0120FFF789
:102D600031FF042000F092FA0220FFF72BFF2046EB
:102D7000FFF728FFE01D00F06FFA4FF4FA60FFF74D
:102D8000A9FD08B1407A10BDFF2010BD10B500F0BC
:102D90006DFA00F049FA0120FFF714FF032000F05C
:102DA00075FA0120FFF70EFF052000F055FA4FF4E9
:102DB000FA60FFF78FFD407A10BD2DE9F0411E4605
:102DC00014460D46074600F051FA00F02DFA012096
:102DD000FFF7F8FE082000F059FA1B20FFF7F2FE7B
:102DE0003846FFF7EFFE280AFFF7ECFEE8B2FFF7E0
:102DF000E9FE200AFFF7E6FEE0B2FFF7E3FE07EB8D
:102E00001520E9B2084400EB1420E1B20844243054
:102E100000F022FA4FF4FA60FFF75CFD58B1C27A75
:102E2000837A417A02EB03223280427B007B02EB01
:102E30000020708000E0FF210846BDE8F08100001E
:102E40002DE9F05F0746006857490026DFF85C81EE
:102E50003C25DFF85CA1DFF85CB1574C4FF46169A9
:102E600088423ED12346554A55A15748FDF7C0F93F
:102E700056A15248FDF7AEF998B921680126B1FB79
:102E8000F9F2C8F80020B1FBF5F2B2FBF5F305FB4F
:102E90001322C8F80420B1FBF5F205FB1211C8F8A3
:102EA00008104CA14548FDF795F918B920788AF823
:102EB0000000012649A14148FDF78CF918B9207896
:102EC0008BF80000012647A13C48FDF783F900B3C9
:102ED0002EB1FF23052245A14648FFF76FFB00F006
:102EE00099FA4549386888425CD1334B334A34A15A
:102EF0004248FDF77DF94248FF234049008882B2ED
:102F00004048FFF75BFB31A12C48FDF763F960B146
:102F10001EE0207810F0FF0F01D0002200E0012217
:102F200020213948FEF75DFAD3E72168B1FBF9F2B9
:102F3000C8F80020B1FBF5F2B2FBF5F305FB132254
:102F4000C8F80420B1FBF5F205FB1211C8F808100F
:102F500020A11A48FDF73EF910B920788AF8000040
:102F60001EA11648FDF736F910B920788BF800003D
:102F70001CA11248FDF72EF950B9207810F0FF0F70
:102F800001D0002200E0012220211F48FEF729FA8B
:102F9000FF23052215A11B48FFF710FBBDE8F05FDA
:102FA00000F04CBABDE8F09F0038014078080020DE
:102FB000170000201800002038000020040900201D
:102FC00025732025640000008408002053455454D4
:102FD000494D450053455457000000005345545493
:102FE000454D50005345544C454400004F56455202
:102FF0000A0000000C01002000440040C40800202A
:1030000034000020500100200018014070470000EB
:103010007CB5604801F0CEF901215E4801F00CFB5F
:1030200000215C4801F005FB5B480078B8B15B49C2
:10303000584801F0EEFA5AA30D220021554801F03C
:1030400099FA5BA319220021524801F093FA5B48D8
:10305000007800287CD0252259A300217CE05A4921
:103060004C4801F0D6FA59A338227121494801F0A1
:1030700081FA20215648FEF7A7F908B155A300E0D0
:1030800055A340227121434801F074FA4349414855
:1030900001F0BFFA514D52A105F10C0095F9012044
:1030A00000F042FB05F10C030C221921394801F014
:1030B00061FA4D4E0B24CDE9004603230022362150
:1030C000344801F05FFA49A30C223A21314801F05B
:1030D00051FA474847A10088C3B2020AA81C00F071
:1030E00023FB1922AB1C11462A4801F043FACDE913
:1030F000004603230D223621264801F043FA3BA364
:1031000019223A21234801F035FA3C4839A10088B8
:10311000C3B2020AE81D00F007FBEB1D1922432190
:103120001C4801F027FA06F10B00CDE90040072307
:103130000D225F21174801F025FA29781548FDF77F
:103140001FFF4FF400512E48FEF73EF900B900E092
:1031500005E00D222BA350210E4801F00BFA2B485D
:1031600081680091D0E900230A4829A1943000F039
:10317000DBFA2B49074801F04CFA064B4022943306
:103180000021044801F0F6F9BDE87C40014801F057
:1031900037BA0000D80700204E0000202652000851
:1031A000544F554348205343414E4E455200000072
:1031B000544F20554E4C4F434B0000004F00002011
:1031C0004552524F52000000755600084C454400CD
:1031D000001801404F4646004F4E000017000020E7
:1031E00025642E30000000007464000843000000D5
:1031F0002800002025642E25640000002A000020FD
:10320000001001405241494E0000000078080020A3
:10321000253032643A253032643A25303264000079
:10322000B85400087047000010B50A4C6068000EE2
:10323000FFF7C8FC6068C0F30740FFF7C3FCA08835
:10324000C0F30720FFF7BEFC2079BDE81040FFF770
:10325000B9BC00003C00002010B50446000AFFF78E
:10326000B1FCE0B2BDE81040FFF7ACBC10B54FF4C4
:10327000C8710548FCF791FFEF20FFF7A3FCBDE8FC
:1032800010400120FFF79EBC0E09002010B5044637
:10329000C0F30720FFF796FCE0B2BDE81040FFF74F
:1032A00091BCFEF731BA30B58FB028216846FCF7E3
:1032B00074FF14210AA8FCF770FF01210804CDE96E
:1032C00000100024029402250491CDE907504FF428
:1032D000E01009906846FEF7A1FB08B172B6FEE760
:1032E0000F20CDE90A054FF48060CDE90C400221A2
:1032F0000AA80E94FEF7A0FA002801D072B6FEE7E5
:103300000FB030BD704700000148FEF757BE000007
:10331000C4000020F0B502681C4B1D4D1D4E1E4F11
:103320001E4C4FF0804C984209D0A04207D0604517
:1033300005D0A84203D0B04201D0B84204D122F057
:10334000700E4A6842EA0E02984209D0A04207D0A5
:10335000604505D0A84203D0B04201D0B84203D1A5
:1033600022F44075CA682A434D6922F080022A433C
:1033700002608A68C2620A688262984201D0A042F2
:1033800001D10969016301214161F0BD002C0140B7
:103390000004004000080040000C004000340140E0
:1033A00010B5846842EA032224F47F440A4322438E
:1033B000826010BD826822F070020A4342F0070169
:1033C0008160704710B5036A046A24F00104046246
:1033D000846924F0F00444EA021423F00A020A4348
:1033E0008461026210BD10B5036A23F0100303620A
:1033F0008369046A23F4704343EA023224F0A00391
:1034000043EA01118261016210BD8168491C81603B
:10341000FDF7CABC10B5074A00200146064C5368A8
:1034200002E02154401CC0B29842FAD3117051609E
:1034300010BD00002C0000208408002010B5074AB1
:1034400000200146064C936802E02154401CC0B2A3
:103450009842FAD39170916010BD00002C000020BA
:10346000C408002010B5406A0021C185C184FEF760
:1034700075FE10BD0168CA6822F49072CA600168C6
:103480004A6922F001024A61016B012904D10168F5
:10349000CA6822F01002CA60202180F83E10002184
:1034A0000163704708B590F83E10222901D0022030
:1034B00008BD82684FF480539A4201D1016921B15D
:1034C000816A9A421BD04AB10AE00268816A526856
:1034D000C2F308020A80816A891C08E0026972B19D
:1034E0000268526802F07F020A70816A491C816298
:1034F000C18D491E0904090CC18503D019E0026879
:103500005268F1E70168CA6822F02002CA600168C7
:10351000CA6822F48072CA6001684A6922F0010216
:103520004A61202180F83E10016B012903D0FEF78B
:10353000FFFF002008BD002101630168CA6822F076
:103540001002CA6001680A68D20602D50A68496892
:103550000091818DFEF701FEEBE7000070B5044697
:1035600000680169E26821F4405111430161216959
:10357000A0680843616908432168CA6841F20C6386
:103580009A430243CA6020684169A26921F44071EC
:10359000114341611E492068884202D1FEF7F8F9C3
:1035A00001E0FEF7E5F900EBC00101EB00126068F5
:1035B00064218000B2FBF0F3B3FBF1F36FF0180667
:1035C0007343B2FBF0F5B2FBF0F605EB8305322353
:1035D00003EB0515B5FBF1F5B6FBF1F605F0F005CB
:1035E00005EB0615B2FBF0F6B2FBF0F0B0FBF1F024
:1035F0006FF01802504306EB800003EB0010B0FBA5
:10360000F1F0216800F00F002844886070BD0000D0
:103610000038014081628285C28500210164222236
:1036200080F83E2080F83C100168CA6842F480723D
:10363000CA6001684A6942F001024A610068C168D3
:1036400041F02001C160002070472DE9F04198460B
:1036500017460E460446069D1DE0681C1BD02DB182
:10366000FDF7C4FEA0EB0800A84214D92068C16889
:1036700021F4D071C1602068416921F001014161EC
:10368000202084F83D0084F83E00002084F83C00AF
:103690000320BDE8F0812068006836EA000004D00D
:1036A0000020B842D9D00020F3E70120F9E700005C
:1036B0000148FEF755BD00000C0100200148FEF74F
:1036C0004FBD0000500100200B4982B0086802681D
:1036D000D243D2060CD40268406800904FF4C87000
:1036E000C8850648886206490120087002B0704704
:1036F000014802B0FEF734BD940100200E090020FD
:103700003C000020FEE700000FB4054B10B503A9F4
:10371000044A029800F0FEF810BC5DF814FB0000AB
:1037200099400008580000200FB4084B10B504A9B8
:1037300002AA039800F0EEF8044602A9002000F067
:103740006CFC204610BC5DF814FB00001B40000818
:103750000907090E002804DB00F1E02080F80014BE
:10376000704700F00F0000F1E02080F8141D704752
:1037700002E008C8121F08C1002AFAD1704770473A
:10378000002001E001C1121F002AFBD17047000098
:103790002DE9FF5F82B00021DDE90430020DDDF884
:1037A00040B0034318D044F61050A2F2FF32424317
:1037B0001514119801281FD0A5EB0B00401C5FEADF
:1037C000000A4FF000064E4FDFF83891B0465046E1
:1037D00015D5CAF1000413E0119801244AA3012869
:1037E00001D16FEA0B010298119AC0E90031C0E9DA
:1037F000024206B0BDE8F09FCBF10000DFE70446CF
:103800000021404A491842EB0450CDE9001012E073
:10381000E00707D032463B4640464946FDF745F8AB
:103820008046894632463B4610461946FDF73DF82C
:1038300006460F466410002CEAD1DDE90401DDE9FB
:103840000023BAF1000F06DAFDF72FF842464B4687
:10385000FDF72BF805E0FCF7A4FE42464B46FCF7CB
:10386000A0FE04460E460022284BFDF7A9F803D817
:103870004FF0FF30014607E00022254B204631463D
:10388000FCF7E8FDFDF783F8102409E0002C0ADBC3
:103890000A220023FCF717FF039B30321A55641EDF
:1038A00050EA0102F2D1641C039AC4F111031444DA
:1038B000119A012A03D0012208430DD10AE00843DE
:1038C00004D000204FF0110B119072E7A3EB0B0511
:1038D0006D1E0DE05B4504DD4FF0000205F10105B2
:1038E00004E003DA4FF00002A5F10105002AECD054
:1038F00002981199C0E90231C0E9004579E700005A
:10390000000014400000F03F300000000000F043D1
:103910000000E03F2DE9FF4F95B09A4688460646E5
:103920000025EEE1252877D100242746F94A012118
:10393000039400E0044316F8013F203B01FA03F032
:103940001042F7D130782A2811D06FF02F03307849
:10395000A0F13002092A16D8039A44F0020402EBBF
:10396000820203EB42021044761C0390EFE758F802
:10397000042B0392002A03DA504244F400540390CB
:1039800044F00204761C30782E2816D116F8010F68
:1039900044F004042A280DD06FF02F023078A0F1F3
:1039A0003003092B09D807EB870302EB4303C71841
:1039B000761CF3E758F8047B761C30786C280FD01F
:1039C00006DC4C2817D068280DD06A2814D104E0F2
:1039D000742810D07A280FD10DE044F400140AE0C6
:1039E00044F4801401E044F440147278824202D11D
:1039F00004F58014761C761C307866280BD013DC16
:103A0000582877D009DC002875D04528F6D04628FC
:103A1000F4D047281AD193E118E0632835D0642800
:103A200079D0652812D18BE1702873D008DC672823
:103A3000F1D069286FD06E280DD06F2806D1ACE088
:103A400073282CD0752874D0782853D052461799F3
:103A500090476D1C54E1C4F30250022809D003289A
:103A60000DD0D8F8001004280DD00D6008F104081E
:103A700046E1D8F80010EA17C1E90052F6E7D8F895
:103A800000100D80F2E70D70F0E718F8041B8DF8B8
:103A9000001000208DF80100EB46012003E058F8EB
:103AA00004BB4FF0FF3061074FF0000102D40DE07E
:103AB00009F101018946B9420FDA8145F8DB1BF8AB
:103AC00009100029F4D108E009F101018946814279
:103AD000FADB1BF809100029F6D103985346A0EB36
:103AE000090721463846179A00F080FA284400EB6F
:103AF000090507E044E008E10DE01BF8010B524620
:103B000017999047B9F10109F7D253462146384633
:103B1000179AF2E039E00A21C4F302524FF0000B89
:103B20000091022A06D058F8040BC117032A09D0C5
:103B30000AE023E008F1070020F00702F2E80201A2
:103B4000904605E000B2C117042A01D140B2C11766
:103B5000002906DA0A460021404261EB02012D22CB
:103B600002E0220504D52B228DF80420012203E077
:103B7000E20701D02022F7E7914657E00A2100E052
:103B800010214FF0000B00910BE010214FF0000BC3
:103B900044F004040827009103E008204FF0000BD4
:103BA0000090C4F30252022A05D058F8040B0021F9
:103BB000032A08D008E008F1070020F00702F2E825
:103BC0000201904603E080B2042A00D1C0B24FF057
:103BD000000922072AD53278702A07D0DDF800C004
:103BE0008CF0100C5CEA0B0C05D00EE040228DF836
:103BF0000420012208E050EA010306D030238DF8AA
:103C000004308DF8052002229146009B83F00803C2
:103C100053EA0B030AD150EA010201D1620705D52C
:103C200030228DF804204FF001097F1E3278582A87
:103C300004D039A20C920CAA02920BE03BA2F9E745
:103C40005B46009AFCF73FFD0C9B9B5C029A521E60
:103C50000292137050EA0102F2D1029804A9081AE4
:103C600000F1200B600702D524F4803400E0012726
:103C70005F4502DDA7EB0B0000E0002000EB0B012D
:103C8000009003984944401A0390E00306D4534639
:103C90002146179A039800F0A9F90544002706E089
:103CA00001A85246C05D179990476D1C7F1C4F4577
:103CB000F6DBE0030CD553462146179A039800F033
:103CC00095F9054404E030205246179990476D1C41
:103CD0000099481E00900029F5DC08E0029802993E
:103CE00052460078491C0291179990476D1CBBF110
:103CF0000001ABF1010BF1DC5BE100F065F905447B
:103D0000761C307800287FF40DAE19B02846BDE847
:103D1000F08F000009280100303132333435363756
:103D20003839616263646566000000003031323307
:103D300034353637383941424344454600000000A7
:103D4000600700D4062708F1070020F00700F0E81C
:103D50000223804603F0004C5FEA0C0001D097A0DC
:103D600009E0200501D596A005E0E00701D095A067
:103D700001E0AFF24C001390307823F00043652847
:103D80000CD006DC452809D046281DD047287FD115
:103D90003BE0662818D067287AD136E00021112F41
:103DA00001DB112000E0781CCDE9000104A90CA87A
:103DB000FFF7EEFCDDE90D010C9A4FF0000B07F167
:103DC0000109109200914EE04FF000400097CDE9BC
:103DD000011004A90CA8FFF7DBFCDDE90D020C9B28
:103DE0000F994FF0000B91461093009211B9791C76
:103DF00000EB0109B7EB090003D4C0F1FF3B07F169
:103E00000109A9EB0700019042E0012F00DA012728
:103E10000021112F01DD112000E03846CDE900011D
:103E200004A90CA8FFF7B4FCDDE90D010C9A009180
:103E30004FF0000BB946109221070FD4009A4A4563
:103E400003DA914601E0A9F10109B9F1010F05DD9D
:103E5000109AA9F10101515C3029F4D0B84202DA7C
:103E600010F1040F03DA0121CDE9011010E0002860
:103E700003DC8344A9EB000102E0411C494500DD5D
:103E80008946A0EB0B00401C01904FF000400290CF
:103E9000200705D40198484502DB4FF0FF30019020
:103EA00000208DF84B0002980DF14B07B0F1004F48
:103EB00025D002200C902B200D90029800280CDABF
:103EC000404202902D200D9007E00A210298FCF755
:103ED000E4FB3031029007F8011D0C99481E0C904C
:103EE0000029F2DC02980028EFD1791E0D980870A5
:103EF000307800F0200040F0450007F8020D11A8CE
:103F0000C01BC01D02901398007800B1012000EB87
:103F10000901019801EBE071029801440398401AED
:103F2000401E0390E00306D453462146179A039897
:103F300000F05CF805441398007818B152461799C0
:103F400090476D1CE00323D553462146179A0398EA
:103F500000F04CF805441BE0BBF1000F07DB0098B4
:103F6000584504DD1098179910F80B0001E01799D7
:103F700030205246904701980BF1010B401E05F18D
:103F80000105019004D12E205246179990476D1CCF
:103F9000B9F10001A9F10109DEDC05E017F8010B18
:103FA0005246179990476D1C0299481E02900029AD
:103FB000F4DC53462146179A03989EE62D00000034
:103FC0002B000000200000002DE9F04104460025F0
:103FD0001E461746880404D405E039462020B04721
:103FE0006D1C641EF9D52846BDE8F0812DE9F0412D
:103FF000044600251E469046C80301D5302700E040
:104000002027880404D505E041463846B0476D1C9A
:10401000641EF9D52846BDE8F0810A68531C0B6080
:10402000107070472DE9F0414FF4C87210491148E3
:10403000FEF768FA0F480068C16841F01001C160DE
:104040000B4E01257572FFF711F9FFF7EDF80A4FD6
:104050000024385DFEF7B6FD641C0A2CF9DBC8208D
:10406000FDF7A4F8707A002800D02846BDE8F0815A
:104070000E090020940100204400002010B50446E1
:10408000FDF770FC0349B0FBF1F16143491EFDD21D
:1040900010BD000000093D0038B504468DF8000051
:1040A0000223012269460248FEF788FA204638BDFD
:1040B0000C010020FDF730FBFFF7F5F8FEF73EFCA2
:1040C000FEF72CFDFEF746FDFEF7F4FCFEF7D2FCF2
:1040D000FEF75CFD5A4800F053F9FFF7A3FF0028F4
:1040E00039D058A0FFF710FBFEF792FF20215A4865
:1040F000FDF76FF959A0FFF707FB5A48FDF7BCFE23
:1041000064230A2255A15848FEF758FA012257495C
:104110005748FEF7F7F9012256495348FEF7F2F9DE
:10412000DFF854B1DFF854A1DFF85491554E4FF445
:10413000005800BF9BF8000008B1FCF71FFE4FF4C9
:104140002F70FDF733F84446414655465046FDF77B
:104150003BF910B106E04CA0C4E799F8000008B99B
:10416000FCF736FE21462846FDF72EF920B199F8D6
:10417000000008B1FEF7E4FD3088FF2382B2484911
:104180003B48FEF71BFA47494748FCF7B0FE474853
:10419000007810B13648FEF753FE4548007810B15C
:1041A0003148FEF74DFE434881680F2091FBF0F245
:1041B00000FB1210D8BB3C480788F8B2FCF760FA45
:1041C00000223D4BFCF7EDF904460D46380AFCF79A
:1041D00057FA22462B46FCF73DF902460B4637A11B
:1041E0003948FFF7A1FAFF23142237491E48FEF78A
:1041F000E5F92C480788F8B2FCF742FA00222E4B6A
:10420000FCF7CFF904460D46380AFCF739FA2B467D
:104210002246FCF71FF902460B462CA12A48FFF75D
:1042200083FAFF23142228490F48FEF7C7F9308884
:10423000FF2382B21A490E48FEF7C0F97AE7000060
:10424000D8070020415336303820496E6974204623
:1042500061696C65640D0A00000C01407374617241
:1042600074000000C4000020500100202D00002038
:104270000C0100202F0000204E0000200010014003
:104280005400002030000020415336303820496E61
:10429000697420537563636565640D0A000000004E
:1042A000840800202A000020280000202C00002084
:1042B0002E00002078080020000059405345545437
:1042C000454D502025660A005C00002053455448A7
:1042D000554D492025660A0010B586B04FEA000406
:1042E000FEF754FD0028FBD10120FEF731FD18B187
:1042F0000FA0FFF709FAF3E723466322002101200C
:10430000FEF75BFD28B10EA0FFF7FEF9012006B015
:1043100010BD0FA0FFF7F8F96388228811A1684645
:10432000FFF702FA694614A0FFF7EEF90020EEE766
:10433000E8AFB7E68C89E6898BE68C870D0A00002A
:10434000E9AA8CE8AF81E5A4B1E8B4A50D0A0000A4
:10435000E68C87E7BAB9E9AA8CE8AF81E68890E5F0
:104360008A9F00002049443A256420E5BE97E588ED
:10437000863A25642000000025730D0A0000000025
:1043800010B50446084B094A094900F08FF9204648
:1043900000F0DBFC0021204600F0E7FC2046BDE8F1
:1043A000104000F007B80000655100080D4E0008ED
:1043B000705D000801680A7C90F83810406B51432A
:1043C000C900FBF7EABE2DE9F041044690F8700001
:1043D0001F4615460E4630B1012809D002280CD0E0
:1043E000032815D10FE0E16D20468847284408E0F6
:1043F000E16D20468847301A09E0E16D2046884784
:10440000281A85B204E0E16D20468847304486B220
:104410003946204600F040FB0100A4F864604FF0EC
:104420000000A4F8665003D0204600F065FA80B280
:10443000BDE8F0813FB581B0044690F88C00089942
:1044400000283AD0BDF81000002836D0012811D934
:10445000022902D0032907D00CE0BDF80820101A69
:10446000401CADF8080005E0BDF80C20101A401CF7
:10447000ADF80C0011F0010521D0B4F84810BDF8DA
:104480000800814219D8B4F84A10814215D9B4F80D
:104490004E30B4F84C2004A90DF10C0000F09EF948
:1044A00000280AD00095206BBDF81030BDF80C2014
:1044B0008568BDF808102046A84705B030BDB4F89F
:1044C0004C10BDF80C008142F7D8B4F84E10814270
:1044D000F3D9B4F84A30B4F8482004A902A8DDE7BB
:1044E0002DE9FF4F81B090F89270DDF838901D46AD
:1044F000884606469FB10020834603984146401CEB
:1045000080B2009008EB050083B23046039A00F0B9
:104510005FF800282BD001244FF0000A23E001208F
:10452000EAE700BF99F80000204202D086F89270B6
:1045300004E096F8910048B986F892B00123CDF8CE
:1045400000A041463046039AFFF774FF08F10100CE
:104550001FFA80F8600010F0FF0402D1012409F175
:1045600001096D1EADB2002DDCD186F8927005B048
:10457000BDE8F08F30B4024C446030BC00F05BB951
:10458000D14D00082DE9F84F8246DDE90A57D81DC4
:10459000C0F3CC08501980B21C460090081983B2B1
:1045A00016468946504600F013F800280ED00BE05E
:1045B00023463246494650460097FFF791FF761C46
:1045C0006D1E4744B6B2ADB2002DF1D1BDE8F88FF3
:1045D00070B50D461E460446B0F84E10B0F84C00BB
:1045E000049B00F0B6FA002809D0B4F84A10B4F8D9
:1045F000480033462A46BDE8704000F0AABA70BDB4
:1046000010B5044600F035FB2046BDE8104000F030
:10461000A4BB10B50446806D884209D004F1740033
:10462000A16500F0F1FA2046BDE8104000F05AB84C
:1046300010BD80F87010704780F86D107047000052
:104640000149C16570470000AD4800080021A0F88D
:104650005010A0F854104FF6FF71A0F85210A0F8B7
:104660005610016B4968084770B504460025049848
:10467000A565E362616384F8382084F8395084F8D2
:104680006D5084F89150012184F8921084F89310B1
:1046900020630168204688472046FFF7D7FF204661
:1046A000FFF7CEFF84F8705070BD00007CB50C465B
:1046B000009313460546084A084900F05EFB01A82E
:1046C00000F09CFA0146064B00949DF80420284611
:1046D000FFF7CAFF7CBD0000354F00085D500008A1
:1046E0006D4B000810B5816D00291AD090F981300A
:1046F00080F88E3090F9822080F88F2090F88D100D
:1047000000290ED001290DD090F97E4090F980103B
:104710000C449C4201DD80F88E408A4201DD80F825
:104720008F1010BD90F983108B4201DA80F88E1043
:1047300090F98410F1E72BB1012B05D0022B06D0A4
:10474000104402E0084400E0801A80B27047401A2A
:10475000FBE72BB1012B05D0022B06D0401A02E05B
:10476000104400E0084480B27047801AFBE738B577
:104770000446B0F856000090B4F85230B4F8542013
:10478000B4F850102046FFF723FF18B3012084F837
:104790008C00B4F84810B4F85000814201D2A4F85B
:1047A0004800B4F84A10B4F85200814201D9A4F884
:1047B0004A00B4F84C10B4F85400814201D2A4F875
:1047C0004C00B4F84E10B4F85600814201D9A4F858
:1047D0004E0038BD002084F88C0038BD30B5048808
:1047E0000D882544ADB2AC4205D99C4202D25D1E73
:1047F000ADB200E014469C4201D2954201D800209F
:1048000030BD944200D214469D4200D91D4604801A
:10481000281B0880012030BD38B5C58F049C00944A
:10482000521BC46A92B2A04738BD38B5049C0094AC
:10483000FFF7F2FF38BD2DE9F0471C469146884648
:10484000064600F0E0FC00254FF6FF7772682178FD
:10485000304690470346B84225D0641CA3F57F40FC
:10486000FE38F3D04A4641463046FFF7ACFD96F895
:10487000701031B1012907D0022908D003290FD1C6
:104880000AE008EB000104E009EB000106E0A8EBF8
:1048900000011FFA81F803E0A9EB00011FFA81F97A
:1048A000284485B2D2E72846BDE8F087002070474B
:1048B00010B50C4600F006F80122641EA240801AD2
:1048C00040B210BD30B50568047B2A78E240631819
:1048D000DBB2082B09D36D1C05602D78C4F10804E8
:1048E000A5401543083BEAB2DBB201248C40641EAC
:1048F00014400373204630BD2DE9F843054600F10E
:10490000600400F00CF915F96B6F2046E97BFFF7A6
:10491000CFFF8146297C2046FFF7CAFF0746697C06
:1049200020466B3DFFF7C4FF804694F90A0000283B
:1049300057DDF019404247B2237CA0883A464946E9
:10494000FFF7F9FEA080237C3A46E0884946FFF74E
:1049500000FFE080A188277C02460B4637B1012F7B
:104960000AD0022F40D0032F0FD146E094F90A70ED
:1049700030443B449BB207E0891B491C94F90A7000
:104980005B1C89B29BB2384480B200902846FFF786
:104990001FFE30B30020207284F8090095F87610CD
:1049A0002046FFF78FFF814695F877102046FFF7E6
:1049B00089FF074600224946284600F027F80122D1
:1049C0003946284600F022F801212046FFF77AFFF9
:1049D0000028EFD194F90900B042DFDBA07B85F815
:1049E00092004046BDE8F88394F90A705B1CC91B2D
:1049F000491C89B29BB2921B04E094F90A703344BB
:104A00009BB2D21B521C92B2401CBDE72DE9F74F5E
:104A100084B00D46049C94F8687094F86980603402
:104A2000A07AC01BC6B20196B54200D201954FFADA
:104A300088F279B2A088B4F806B0237C9246894601
:104A4000FFF779FE0290237C524649465846FFF70D
:104A500080FE0246069808B1A17B02E0607B50B957
:104A6000E17B049880F89210207C0090DDE9013110
:104A70000498FFF7DFFCB54207D3A81BC5B208F1C5
:104A80000100002700F0FF08CAE77819207284F8B7
:104A9000098007B0BDE8F08F70B50D460146806D06
:104AA0001730FF2D10D8612D02D3B1F8881003E024
:104AB000412D02D3B1F886100844417819B3027829
:104AC000AA42F9D1801C70BDB1F88A100C18264694
:104AD0000021304600F019F804440221304600F06D
:104AE00014F8361DA842F3D34FF6FF72207802EA7D
:104AF00000216078084306D0A84201D1E01C70BDB7
:104B0000A0780444F2E7002070BD08444FF6FF721D
:104B10000178407802EA0121084480B2704730B53C
:104B2000054600F1600401660020207315F8781F27
:104B30002046FFF7C7FEA07269782046FFF7C2FE45
:104B4000E072A87EA07310B10020E07330BD012098
:104B5000FBE78A4205D2834201D89A4203D9012059
:104B600070478342F9D8002070470000F0B502F08A
:104B700007060124B440002590F892E0E7B2DDF882
:104B800014C02C46BEF1010F01D83D4600D03C4672
:104B9000076822F00702BCF1000F3F7C07FB02F719
:104BA000BAB2476B3A44114409D108785B1E2843D6
:104BB00060401B0401F8010B1B0CF6D1F0BD0A7814
:104BC000761C2A436240A3F101030A7016F007061F
:104BD0009BB206D06A06150E6206140E002BEED1AB
:104BE000F0BD428F114490F89220012A03D800BFF3
:104BF0004FF00105F2D04FF00104EFE708210170FA
:104C000000487047D803002070B505460878287022
:104C1000487868708878A870C878E8700879287132
:104C20004879687188790C46A871E079E871207A32
:104C30002872607A6872A07AA872E07AE872207BA3
:104C40002873607B6873A07BA873E07BE873207C8B
:104C5000287411212046FFF758FF6882132120464F
:104C6000FFF753FFA88215212046FFF74EFFE88289
:104C700070BD2DE9F843064690F8387090F8395029
:104C8000006800244FF6FF7890F8119031683046A4
:104C90002A460B7C716B04FB03FC1FFA8CFC08EAB0
:104CA000CC0C61440091002100F040F8641C6D1CA4
:104CB000E4B2EDB2BC4201D24D45E7D3BDE8F88382
:104CC000F0B590F838204FF6FF75036805EAC20189
:104CD0008187197C05EAC101418790F8394005EACE
:104CE000C401C1875E7CA718B74201D9321B92B2BA
:104CF00005EAC20220F8401F11444180998A818050
:104D0000D98AC180F0BDFFF7DBBF0021A0F84810B1
:104D1000B0F84410A0F84A10B0F84010A0F84C10B9
:104D2000B0F84210A0F84E10FFF721BD1CB58DF869
:104D300005108DF80620049C8DF8043000940122A3
:104D400084686B460F21A0471CBD30B484680023E3
:104D5000A44630BC1A460A21604730B48468002358
:104D6000A44630BC1A461021604730B48468002342
:104D7000A4460A4630BC0B2160472DE9F041154698
:104D80000E460446069F00F009F86761A660C4E974
:104D900003532046BDE8F04100F012B8002140F86E
:104DA000081B064A026042608260C260C176817759
:104DB0000161FF21017780F82010704761510008E0
:104DC00030B484680023A44630BC1A4609216047E9
:104DD000080001D00A2801D14FF6FF70704730B4A7
:104DE00004690023A44630BC1A461921604713B554
:104DF0000122046901AB1721A0471CBD30B404692E
:104E00000023A44630BC1A461821604738B518481C
:104E100018290DD004DC142907D0172923D10AE062
:104E2000192916D020291ED11FE0FDF723FE1CE012
:104E30000021017019E00F4C08E000BF017813F861
:104E4000015B6554491C521E0170D2B2002AF5D193
:104E50000BE04FF47A7100910378064A78210648F6
:104E6000FCF78EFB08B1002038BD012038BD0000E2
:104E700010000020D80100207000002030B4C46869
:104E80000023A44630BC1A461921604730B4C468D8
:104E90000023A4460A4630BC1621604730B4C468DB
:104EA0000023A4460A4630BC1521604730B4C468CC
:104EB0001346A4460A4630BC17216047F8B50C4695
:104EC0004FEA000514F8011B182924D00EDC15291F
:104ED00019D0162917D0172923D120788DF8000072
:104EE0006A4601212846FFF7E1FF0AE0192912D09E
:104EF000FE2916D122788DF800202921284600F0BD
:104F000066F9641CDEE722788DF80020EE68002345
:104F10002846B047F5E70023EE681A462846B04712
:104F2000D0E7F8BD30B4C4680023A44630BC1A46AC
:104F3000182160472DE9F041DFF8B080144606469D
:104F4000A1F11402002798F800001D46062A4AD253
:104F5000DFE802F02F03161B3E4310B13046FFF787
:104F60003EFF3046FFF74AFF00213046FFF73FFF84
:104F700021463046FFF73BFF012088F8000029E07A
:104F800021463046FFF733FF24E050B13046FFF7AB
:104F900026FF06E01821304600F01FF9183CE4B265
:104FA0001835182C2A46F5D82146304600F015F958
:104FB0000EE096F82400FF2802D1782086F824001D
:104FC00037692B4622463046BC46BDE8F041604773
:104FD00088F800700120BDE8F0810028F8D0304644
:104FE000FFF7FDFEF4E70020F5E7000011000020C8
:104FF00070B50023456904461A462821A8470023B6
:10500000E5681A4614212046A84701224B21204674
:1050100000F0DDF8206829210279204600F0D7F859
:1050200000224B21204600F0D2F820682921027985
:10503000204600F0CCF801224B21204600F0C7F8B2
:105040002068292142792046BDE8704000F0BFB8B1
:105050000160897C80F822107047000070B50C4612
:10506000054600F019F888B9092C0BD00A2C01D09C
:10507000002070BD2846FFF7BBFF05492846FFF713
:105080001DFF03E003492846FFF7E2FF012070BD42
:10509000A25D0008A45E00082DE9F0411E461446FA
:1050A00005460B2908D00D290ED00E291ED00F2938
:1050B00027D00020BDE8F0811AB12849FFF7FEFE95
:1050C0004AE02649491FF9E74AB124490C31FFF764
:1050D000F5FE286890F8130085F822003CE01F498F
:1050E000491DFFF7EBFE2868807CF5E7FFF71AFF04
:1050F00081212846FFF7D2FE21462846FFF7C6FE4B
:1051000027E0FFF70FFF707995F8221001EBC00040
:10511000C7B240212846FFF7C1FE102040EA171110
:105120002846FFF7BBFE07F00F012846FFF7AEFE4B
:10513000B07940F0B0012846FFF7A8FE3079326818
:10514000C006010E2846FFF7B1FE641E14F0FF04EE
:10515000F4D12846FFF792FE0120ABE7815D0008FD
:105160000020704710B54D2919D00CDC2B2918D020
:1051700004DC292920D02A290ED114E02D291FD0A2
:105180004C2909D10BE0002250291DD051291BD0F8
:10519000522919D0532917D0012180F82710012056
:1051A00010BD00BFFBE700204FF4A07100BF401C02
:1051B00080B28842FAD3F2E70120FBF7F7FFEEE76F
:1051C0000520FEF75BFFEAE780F82720E7E730B429
:1051D00044690023A44630BC60472DE9F0411546E0
:1051E0000E460446FFF70AFE40212046FFF7FFFD6A
:1051F00027692B46324617212046B8472046BDE88E
:10520000F041FFF7ECBD002180F826107047000048
:105210000000000000000102030406070809000066
:105220000000010203044000030303040405050712
:105230000B00010C000C0200F400000275200500B8
:105240008C172105008C172205008C172305008C74
:10525000172405008C172505008C172605008C17D0
:105260002705008C172808539437A3FC26290AD356
:105270009517B2503E4D002A0BADBC189194596C55
:1052800092012B0B3FA478E1B45B380D002C071280
:10529000D53712002D060FBC18072E0612951704DD
:1052A0002F0D5794D8D17034399A1C0D03300856FD
:1052B000941747FD78310852961792FC03320B562B
:1052C0009417D6AC8768AA01330A569417D64CD4E3
:1052D000AC073409569417411DAF39350A56941757
:1052E000D7546BD603360A569417D7D4A3C60337C0
:1052F00008569417D6FC03380B56941747C54350ED
:10530000E301390A56941747C56BD6033A073A9515
:105310001764023B05008C173C05008C173D050007
:105320008C173E05008C173F05008C174005008C3C
:1053300017410C57941887A8D683546B00420C571A
:10534000941887A8EA25AAF510430957941887707E
:105350007E3E440A57941896A87EBD00450C57948B
:1053600018877072299CF900460C57941887707240
:10537000299C3300470C5794188770A6AAD643007F
:10538000480B57941851AD07A9AE014907D195189C
:1053900087014A0C579478E49CA5AA910A004B1304
:1053A000579418516124164A1B4682A15852301254
:1053B0000D4C09579418E1FCF9004D0E579418D183
:1053C000D924451492EA35004E14579418C2A124EA
:1053D00026898942A2902C228B0887024F0B579472
:1053E0003895A87E8D5400500C57941887A8EA4130
:1053F0009C33005115579438A460241809468291B3
:105400006024180946822103521157941887A8EA8C
:1054100041120CC59282916800530C579418877002
:10542000E673F2210054094F9C18B7707E035509AA
:1054300057941851FDF510561357941851D5482C10
:10544000140B49649160241A8E01570F5794185118
:105450003D854421498A2465265813579418D1481C
:105460002C144B8986A39158522C120D590C579429
:105470001851AD87583837005A0B579418E7A85081
:10548000AFE1035B08549417B5FC465C0E569417C5
:10549000E168381A8E86A3E1005D08549517B4FCC4
:1054A000565E099DCC57B1485A005F060E94170608
:1054B00000000004FFFF00001200040405050405BD
:1054C00006151800FC14FB14FC0000000001A020CD
:1054D00006002044012A1E6B6D8E27AA1183468C7C
:1054E000122166C4880741868811216AC4A011A3CD
:1054F000C284012B101036D44FB87CF7E08138E11C
:10550000F21D002C0EE6244385C89821632619035A
:10551000002D0887644DE141032E08842C4CE141A5
:10552000002F16C9A6636D66C226133699B0990975
:105530009B4CD8CC840D0330238E267CA9202A22B4
:1055400064088D193682D808622388E16723880DA4
:10555000193684101922A4D095023110892A7C8B27
:105560008C9107258E142245FF0F321C8E267CABB2
:105570005CA22565889022418A2849A2244916AC5C
:10558000BB82251F3C60331D8D267CA9589A15656A
:105590004890224921A963058F52890A551A226B26
:1055A00052190234218E267CAFA075C7908D2045FC
:1055B00082D4104244088DA1CD2022A3883C78C01B
:1055C00090284D00351B8D267C81051724E9A2CC3F
:1055D0001213254891A425AA3444D6A432040036D7
:1055E000228D267CC91822258448102231928A32C5
:1055F000238E98A80815AE488C2241868C9A648523
:1056000000371A8D267CE1839414922448924292AA
:105610000449122C48B0204982C50038258E267CCA
:10562000E7989A25654A9022418AC828226408256D
:105630003BA6861009622388619688081B5587005F
:1056400039228D267CA9581A3554901A410A5724BC
:10565000C8944031C4C8482A471022428688227420
:1056600085003A0BC4314CE14178900F02000000F4
:1056700004FFFF0000BF0002020304030404050846
:1056800000FF06FF06000126024D06DD2005007E14
:10569000032107316333520022079B6E93AC002332
:1056A0000D3D6257A634543554991200240D3D62C5
:1056B0009BC1AAC106296D10012508AB661353676B
:1056C00000260A3C621753B36AA6002705196F33F8
:1056D0002807B262A79A012908B2621353A5002ACB
:1056E0000A2C6213931A49C5002B0A2D629B511C88
:1056F00032A3082C079B5EA74A002D060C6A3302D2
:105700002E079B5E9756022F0A34620F32886D90E7
:10571000013008B36257B92A003107B36297646B4E
:10572000320B3462A7620649653002330A346233B1
:1057300062D4482605340A34621B553562060935A1
:105740000A34623334D8482605360A3462A7325800
:10575000512605370C346233328819C40C220038C4
:105760000A3462A76252512605390A3462A7A24C54
:105770001B24053A07AA6233E2083B08B35E67239D
:1057800055023C09B3629BCA0C32083D081C6633C3
:10579000321A013E0AB3629341063195003F09B3C4
:1057A00062D74C192600400C455E2BA35C49255955
:1057B000430541093462A7A21C5306420A3462B36E
:1057C000E248518E04430B3462A7A20619C4A40018
:1057D00044093462B3A2732400450B346233345855
:1057E00019643002460B346233345819649001470F
:1057F0000A3462A7A2066926054809346213E598AF
:1058000066004907B362B3626B4A0A34623733C831
:105810002095114B093462135592A9334C0C346214
:10582000934106196490C1084D09346213C711CD24
:10583000004E09346213D75867004F093462A7A29B
:10584000332900500A3462B3A21C29830C51093C4D
:105850005EA7A25C6E14520A3462B3A21C29CA006D
:10586000530A3462A762CAA84C0A5408B362B362EE
:10587000170055083462133D930256093462139D94
:10588000492A005709346213CD71C400580A3462A2
:105890001365922ACA00590D3562938106A906192B
:1058A0006514015A0A34623332886D30025B07B3E3
:1058B000623362735C0C3462934146196594410013
:1058C0005D07B362339B235E069372D7005F060CBD
:1058D0005E33026006927213036108246237A24CA1
:1058E00003620B34629341062BCA91006307A362E3
:1058F000373310640A34620F324823CA34650924EE
:1059000062A7D2C84001660934625B953383086799
:105910000A2C5EA762DA202900680A3462934106E5
:105920002B9A016908B3629791AC066A09BB5E9B2A
:1059300061A92A006B0B346293410671A428036CA1
:1059400007B36223BB066D092562A35A2AA9026E1A
:10595000072462B3A2196F082462A7A24C0A700A36
:105960002C5EB3E248196400710A2C5E3762DA20BB
:1059700083007209246293920D32007308A3623788
:10598000325800740B346297419C19A49800750733
:10599000246213CD347607A36293AC0A770925629B
:1059A00093814AAA0B7808246213935431790A2C04
:1059B0005E13651A3129007A082462336239027B4A
:1059C0000B3C62AB324A1AC58C047C053163737D93
:1059D0000C3C62A351CC48659424007E0714729756
:1059E0005402A005007E03A1073163934600A2097B
:1059F000345E1B476ACE04A30A34625B8D98415221
:105A000009A40B2D6293419A29AE0C02A50C3562B4
:105A10009341AA868C434600A6063963B306A70CB9
:105A20003C62373258316D301200A8068B769302F3
:105A3000A90A3562B7AA3955B500AA08AB6AB79268
:105A40000603AB081C6697544C01AC069B62330BF3
:105A5000AD058B6A33AE093562F7A1965A00AF05E2
:105A60008B7633B0069B6ED705B108AB629756466E
:105A700003B207AB6AD74C69B308AB6AA3C1060B84
:105A8000B4069272A700B5092C5E13CD913200B610
:105A90000C356237461A29A998620AB705096B13B3
:105AA000B806925EA700B907AB6A976435BA07AB30
:105AB0006AD78D06BB081C6693625209BC0D3C6216
:105AC00093410619A4A8464C00BD0C3C62934106C4
:105AD00029A90C621CBE0C3C629351CC485523266C
