:020000040800F2
:10000000700F0020490100089562000809300008BF
:1000100039610008C50F0008116F000800000000DA
:10002000000000000000000000000000196A000845
:10003000211200080000000001660008976A00080D
:1000400063010008630100086301000845670008B8
:1000500063010008630100086301000863010008F0
:1000600063010008630100086301000863010008E0
:1000700063010008630100086301000863010008D0
:1000800063010008630100086301000863010008C0
:1000900063010008630100086301000863010008B0
:1000A00063010008630100086301000863010008A0
:1000B0001D6B00086301000863010008630100086C
:1000C0006301000863010008630100086301000880
:1000D00063010008BD6E0008C96E0008D56E0008F7
:1000E0006301000863010008630100086301000860
:1000F0006301000863010008630100086301000850
:10010000630100086301000863010008630100083F
:10011000630100086301000863010008630100082F
:10012000630100086301000863010008630100081F
:10013000DFF810D000F082FD00480047F578000895
:10014000AFF30080700F0020064880470648004744
:10015000FEE7FEE7FEE7FEE7FEE7FEE7FEE7FEE777
:10016000FEE7FEE71B6B000831010008202A04DBD4
:10017000203A21FA02F00021704721FA02F3D04020
:10018000C2F120029140084319467047014610B55C
:1001900009683C22B1FBF2F302FB1313B1FBF2F14D
:1001A0001D480360B1FBF2F302FB1313B1FBF2F144
:1001B00018224360B1FBF2F302FB1313B1FBF2F11F
:1001C00083600A1D0723B2FBF3F403FB1422826150
:1001D0008A0040F2B55102F66C32B2FBF1F34433BF
:1001E0004361B2FBF1F301FB13218908C1613B2993
:1001F00003D3027D920700D0491C0022074C13460E
:100200000261E25C8A4203D8891A5B1C0361F8E749
:10021000491CC16010BD0000440B0020B052010811
:10022000D2B201E000F8012B491EFBD27047002238
:10023000F6E710B513460A4604461946FFF7F0FFE5
:10024000204610BD30B505462A460B4612F8010B74
:1002500013F8014B08B1A042F8D01CB1002802D01D
:100260006D1CF1E7284630BD10B5002200E0521C9D
:10027000835C8C5CA34201D1002BF8D1D8B2E1B2EF
:10028000401A10BD0FB400B58DB010A909900B90A5
:1002900000914FF0FF300A9000200C900548069026
:1002A000054807906A4609A80F9900F065FB0DB054
:1002B0005DF814FB95090008B30900082DE9FF5FFC
:1002C0001D464FF0FF3BD5E9014691465F464FF092
:1002D0000008A9697F1C01988847296A82468847D7
:1002E0000028F6D1BAF1FF3F0CD024F4C064002EF0
:1002F00019DD600614D5BAF12B0F09D0BAF12D0F14
:100300000ED103E0584604B0BDE8F09F44F4806489
:10031000A9697F1C01988847761E8246002E02DD5F
:10032000BAF1300F03D0B9F1000F26D032E0A9693D
:10033000761E44F400747F1C019888478246002E84
:1003400005DDBAF1780F06D0BAF1580F03D0B9F134
:10035000000F10D01EE0B9F1000F02D0B9F1100F5C
:1003600018D1A969761E24F400747F1C019888476F
:100370008246102002E0082000E00A20814609E0C1
:1003800008FB0908A969761E44F400747F1C0198D3
:1003900088478246002E05DD4946504600F0D7FAD0
:1003A0000028EDDAE96901988847A00502D46FF0CA
:1003B0000100A8E7E00725D1600613D5600502D546
:1003C000C8F1000000E0404629680A1D2A6009685B
:1003D000220501D5087015E0220701D5088011E03B
:1003E00008600FE02868011D29600068210502D51A
:1003F00080F8008006E0210702D5A0F8008001E027
:10040000C0F8008038467EE72DE9FF5FD2E901A7FA
:100410004FF00008916999461446DDF838B0464619
:1004200001988847054659EA0B0005D009E0A16903
:10043000761C019888470546216A28468847002887
:10044000F5D1681C03D05FEACA7005D015E04FF003
:10045000FF3004B0BDE8F09F2068011D2160D0F896
:1004600000800AE05FEACA7001D108F8015BA16967
:10047000761C7F1E019888470546002F1ADD681CF0
:1004800018D0B9F1000F0DD0E81705EBD06042117C
:1004900020F01F0059F822102A1A01209040014232
:1004A000E0D107E0BBF1000FDCD1216A2846884784
:1004B0000028D7D0E16901988847BBF1000F07D128
:1004C000002E05DD5FEACA7002D1002188F8001015
:1004D000A068B84203DDBBF1000F03D017B16FF085
:1004E0000100B6E73046B4E7F0B480EA0102D40F69
:1004F0004200B2EB410F02D20246084611464A00C2
:1005000042D0C30DDDB2C1F3C752AD1A202D35DA8A
:10051000C1F3160141F4000204B15242C5F12006B4
:1005200002FA06F12A411044B3EBD05F23D0C4B1E4
:10053000012DA0EBC35009DCF0BC4FF0004202EAF1
:10054000C352DBB200F5000000F04DBA400000F1EC
:10055000807000EBC350A0F1807040EAD170490078
:1005600009E0490841EAC071A0EBC35000F5000062
:10057000400800EBC350F0BC00F02CBA61420122ED
:1005800002EB4101001BF6E7F0BC704781F000412F
:10059000AAE780F00040A7E72DE9FE4F804681EAF8
:1005A0000300C00F0C46009021F0004123F00045ED
:1005B000B8EB0200A94105D24046214690461C46B0
:1005C0000B46024623F00040104347D0270DC7F3E7
:1005D0000A00C3F30A510290401A019040286BDAD6
:1005E000C3F3130040F4801B0098924620B100230F
:1005F000D2EB030A63EB0B0B01985946C0F14002A2
:10060000504600F083F906460D4650465946019A79
:1006100000F08BF910EB08006141002487EA1152C9
:1006200084EAE7731A4340D0009A62B3019A012A20
:100630004FEA075215DC001B61EB02014FF000424C
:1006400002EA0752CDE90042001C41F58011324612
:100650002B4600F005FA03B0BDE8F08F4046214676
:10066000F9E7001B61EB0201001C41F58013001843
:100670005B412018A2F5001747EB030140EAD57053
:10068000B6196D4111E06D084FEA360645EAC075AE
:100690004FEA0752001B61EB0201001C41F580117B
:1006A00049084FEA30000019514132462B4603B049
:1006B000BDE8F04F00F0C5B90098012240000023CA
:1006C000D0EB020263EBE073009821464FEAE0743E
:1006D000B8EB000061EB0401E9E783F000435BE75E
:1006E00081F0004158E72DE9FE4F81EA030404F050
:1006F000004421F0004100944FF0000B23F0004330
:1007000050EA01045ED052EA03045BD0C3F30A54FA
:10071000C1F30A552C44A4F2F3340194A0FB025413
:10072000C1F3130141F48011C3F3130343F48013A5
:1007300001FB024400FB034E840A970A44EA8154F9
:1007400047EA8357A4FB076802958D0A05FB0785D6
:100750004FEA932C04FB0C542705029D4FEA0658E0
:1007600047EA1637B5EB08056EEB070C870E920EBD
:1007700047EA811742EA8312A7FB0201B6EB0B019D
:1007800064EB00042B0D43EA0C335E1844EB1C5061
:10079000DA465146E7FB0201C5F313044FEA0B3377
:1007A00043EA14534FEA0432019C43EA0603A4F1DE
:1007B0000C040294009CCDE900B400F051F903B0A0
:1007C000BDE8F08F00200146F9E79623002211468C
:1007D00000F009B90EB540F2334102910021CDE994
:1007E00000110A460B4600F03BF903B000BDC1F30F
:1007F0000A5210B5C1F3130140F2FF3341F48011E6
:100800009A4201DA002010BD40F233439A42A2F22C
:10081000334203DC5242FFF7A9FC10BD904010BDEB
:1008200000F0004230F000400AD0C10D01F56071C7
:10083000C0F3160042EA0151C20840071143704755
:1008400000200146704701F0004330B421F0004120
:1008500050EA010206D00A0DA2F56072C1F313013D
:10086000002A02DC30BC00207047440F44EAC10477
:10087000C100E01830BC00EBC25000F0ABB830B59E
:100880000B46014600202022012409E021FA02F54E
:100890009D4205D303FA02F5491B04FA02F52844E8
:1008A000151EA2F10102F1DC30BD2DE9F05F054615
:1008B000002092469B4688460646814640241BE01F
:1008C0002846414647462246FFF750FC53465A46C3
:1008D000C01A914110D311461846224600F016F86E
:1008E0002D1A67EB01084F4622460120002100F037
:1008F0000DF817EB00094E41201EA4F10104DFDCC6
:10090000484631462A464346BDE8F09F202A04DB8C
:10091000203A00FA02F1002070479140C2F1200312
:1009200020FA03F3194390407047202A06DBCB17C7
:10093000203A41FA02F043EAE07306E041FA02F39A
:10094000D040C2F1200291400843194670473A282E
:1009500000D2303820F02002412A01D3A2F1370022
:10096000884201D34FF0FF30704700000268114405
:100970001378016018467047D160044951610449F9
:10098000116200211161114600F070B96D09000873
:10099000610C0008426842B1016811F8013B23B1C3
:1009A000521EC0E90012184670470121C160881E1E
:1009B000704742685AB1C368016843B983688B4283
:1009C00005D0491E521CC0E90012002070474FF0AC
:1009D000FF3070470029A8BF7047401C490008BF7E
:1009E00020F00100704710B4B0FA80FC00FA0CF05F
:1009F00050EA010404BF10BC704749B1CCF1200497
:100A000021FA04F411FA0CF118BF01212143084323
:100A1000A3EB0C01CB1D4FEA00614FEA102042BF4F
:100A2000002010BC704700EBC35010440029A4BF45
:100A300010BC7047401C490008BF20F0010010BCEA
:100A4000704710B5141E73F1000408DA401C41F120
:100A5000000192185B411A4301D120F0010010BD42
:100A60002DE9F04D92469B4611B1B1FA81F202E0B8
:100A7000B0FA80F220329046FFF748FF04460F4656
:100A800040EA0A0041EA0B0153465A46084313D094
:100A9000114653EA010019D0C8F140025046FFF751
:100AA00065FB05460E46504659464246FFF72EFF67
:100AB000084305D0012004E020463946BDE8F08D0A
:100AC0000020054346EAE0762C4337430A98630545
:100AD000E40AA0EB08000022FD0A44EA47540A3069
:100AE00002D500200146E9E7010510196941DDE959
:100AF000084500196941BDE8F04DA2E72DE9F04D28
:100B000081EA030404F0004B21F0004514464FF045
:100B1000000A23F0004150EA050220D054EA010205
:100B20001DD0C5F30A570246C5F31303C1F31300E2
:100B3000C1F30A5640F4801543F48013A7EB06086E
:100B4000101BD64608F2FD3873EB050002D308F1FE
:100B5000010801E092185B41B8F1000F03DA0020B0
:100B60000146BDE8F08D00204FF480110646844612
:100B70000EE0171B73EB050705D3121B63EB050390
:100B800006434CEA010C49084FEA300092185B41D9
:100B900050EA0107EDD152EA030012D082EA0400C4
:100BA00083EA0501084305D0101BAB4106D20122A0
:100BB000002306E000224FF0004302E06FF0010244
:100BC00053101AEB06004CEB085110EB0A0041EBF6
:100BD0000B01BDE8F04DFFF734BFC1F30A52C1F37A
:100BE000130140F2FF3341F480119A4202DA0020EF
:100BF0000146704740F233439A42A2F2334202DC8C
:100C00005242FFF7B3BAFFF781BE000030B5041EB1
:100C100071F1000404DB4FF00044404264EB010139
:100C2000141E73F1000405DB1C464FF000435242D2
:100C300063EB0403994208BF904230BD064C074D58
:100C400006E0E06840F0010394E80700984710349C
:100C5000AC42F6D3FFF770FAFC5201081C530108AE
:100C6000C0B24FF4F05100F099B900002DE9F34FF4
:100C70008BB04FF0000801F10C000C464FF0010B57
:100C800046460DF1080A01906269012101989047DA
:100C9000051E2DD0252D2CD0216A8847C0B1626950
:100CA000012101989047216A88470028F7D1411E09
:100CB00062690198904700E0761CA1690B9888470B
:100CC000216A88470028F7D1E1690B988847DBE75C
:100CD000A1690B9888470746A84201D1761CD3E743
:100CE000E1690B9888477F1C02D1B8F1000F6FD0E3
:100CF00047E1002762693D463946019890472A2816
:100D000004D162690121019890470125DFF888929A
:100D10006269012101989047A0F130010A290AD2A5
:100D20004F45E5DC07EB870100EB4107303FDFD49F
:100D300045F01005ECE7E90601D46FF000476C2898
:100D40000AD04C2814D0682815D06A280DD07428F1
:100D50001CD07A281AD01DE06269012101989047C1
:100D60006C2802D045F0040514E045F002050DE0C2
:100D700045F020050AE06269012101989047682842
:100D800002D045F0080505E045F4006562690121DF
:100D900001989047C4E9015765283DD019DC5828CF
:100DA0007AD00CDC452837D004DC252826D0412811
:100DB00031D131E046282FD047282CD12CE05B28B8
:100DC00077D0612828D063287CD0642823D15AE0CA
:100DD000D1E06F2848D008DC66281DD067281BD0DA
:100DE000692821D06E2816D127E0702845D07328B5
:100DF00068D0752847D078280DD14DE0A1690B98AF
:100E00008847054625283FF469AFE1690B98884774
:100E10006D1C3FF46AAFB4E023466A466FF00100F0
:100E20000B99AFF300809FE045F040006060A80799
:100E300023464FF0000236D43EE0E8077FF447AF88
:100E40002068011D21600068290501D506701BE797
:100E5000290701D5068017E7A90703D5F117C0E9CF
:100E6000006111E706600FE745F040006060A807E9
:100E700023464FF0080216D41EE040F60E0125EA84
:100E80000100606016E045F040006060A80723465E
:100E90004FF00A0207D40FE045F040006060A80759
:100EA00008D5234610226FF001000B99AFF30080A4
:100EB0005AE007E0234610226FF001000B99FFF77C
:100EC000FDF951E04FF000094F464B46632802D030
:100ED0005B2807D041E02079C00601D40120A06042
:100EE00001273AE062690121019890475E2805D107
:100EF0004FF001096269494601989047216939B963
:100F000000210A46534643F82120491C0829FADBF0
:100F1000B0B3216969B9C11700EBD16253110AEB73
:100F2000830122F01F02821A01200B6890400343C4
:100F30000B6062690121019890475D28E8D1B9F101
:100F4000000F09D00020514651F82020D24341F82B
:100F50002020401C0828F7DB02AB224600976FF0E8
:100F600001000B99FFF750FA00280CDA401C08D159
:100F7000BBF1000F05D04FF0FF300DB0BDE8F08F92
:100F8000FFE74046F9E7E90701D108F10108064407
:100F90004FF0000B78E60000CCCCCC0C7F2801D9B8
:100FA000002208E0064A02EB5002C007127800D186
:100FB000120902F00F020120904008407047000023
:100FC000BC520108FEE7000070B50B480025012661
:100FD00045800580041F084806F0F2FD40B16670A8
:100FE000A078401CA07020780028F4D1002070BDAB
:100FF0002570A570FAE70000760000200249012064
:101000000870B42105F0B4B87A00002070B500244F
:1010100000F028F8124D04E0641CE4B2012006F050
:1010200033FC0121284600F07DFB10B1642CF3D382
:101030000FE0642C0DD2002404E0641CE4B2012013
:1010400006F022FC0121284600F06CFB18B1642C4C
:1010500004D3012070BD642CEFD3FAE7002070BDEB
:10106000001C01401FB5012000900020019069463E
:10107000014800F05BFA1FBD001C01401FB50120B4
:1010800000900190032003906946024800F04EFA58
:101090001FBD0000001C01400D4800B5816985B0EE
:1010A00041F0800181618069694600F08000049010
:1010B000012000900190029003200390054800F069
:1010C00035FA00F095F8FFF7A1FF05B000BD00006C
:1010D00000100240001C014070B50024134D04E0D4
:1010E000641CE4B2012006F0CFFB0121284600F089
:1010F00019FB08B1642CF3D3002404E0641CE4B2AF
:10110000012006F0C1FB0121284600F00BFB08B9C5
:10111000642CF3D3282006F0B7FB0121284600F009
:1011200001FB002800D0012070BD0000001C014020
:1011300070B5002004464006050EFFF7CDFF641C85
:101140002843E4B2082CF6D370BD00002DE9FC4121
:101150008846064600F04CF8FFF758FF10B1012012
:10116000BDE8FC8100246D46FFF7E2FF2855641CB2
:10117000E4B2052CF8D39DF800009DF801109DF80D
:10118000035001449DF80200421911449DF80420C7
:10119000914225D1FFF719FB04469DF80300000694
:1011A00004D521460F48FFF7F1F9044605F00F007A
:1011B000FFF710FB0C4A0D4BFFF795FA07460D465B
:1011C0002046FFF72DFB3A462B46FFF7E5F9FFF7E0
:1011D0003AFB30609DF80000FFF7F7FAC8F800000E
:1011E0000020BDE7000080BF9A9999999999B93F6D
:1011F00010B5FFF743FF094C00220121204600F003
:101200009EFA142000F040F901221146204600F019
:1012100096FABDE810401E2006F036BB001C0140C7
:10122000704772B6FEE7000030B5B3F5804F05D0C9
:101230006FF0704140F82210002030BD8C690B68BF
:101240008D6823434C688989240144EA052423439B
:1012500043EA014150F82230014C23401943E9E7A9
:101260000000F0CF10B50A6850F8223023F00103D7
:1012700040F822308C68082C23D000234A6822438F
:10128000CC681C430B6922431A434B690E4C1A432A
:10129000CB691A430B6A1A434B6A1A438B6A1A4387
:1012A000CB6A1A430B6B1A438B6913434A6B096869
:1012B0001A4350F82130A343134340F82130002053
:1012C00010BD4023DAE700007FFF0F0030B5D1E901
:1012D000003443EA04138C688D89240244EA0544EF
:1012E00023430C8A094D00EB820005EB0454234391
:1012F0000C7D6D0105EB0464896923430B43416850
:1013000001F040410B434360002030BD0000F0FF7E
:10131000704710B590F821100022022905D0042151
:10132000816380F82020012010BD01680B6823F044
:101330000E030B6001680B6823F001030B6090F84B
:101340004030C46B012101FA03F3636080F821107F
:1013500080F82020104610BD2DE9F05F90F8211094
:101360000024022903D004218163012485E001685F
:101370000A6822F00E020A6001680A6822F001027F
:101380000A603F4E3E4FB215DFF8F4C0DFF8F09030
:10139000DFF8ECA0DFF8E8B0DFF8E4E00168783FC0
:1013A00013011502ACF1640CA9F15009AAF13C0A31
:1013B000ABF1280BAEF1140E4FF48018B14227D9CF
:1013C000B9420ED0614512D049451DD0514518D0C3
:1013D000594518D0714501D1424615E0294EB14218
:1013E00001D1012210E0274E1436B14201D1102262
:1013F0000AE0244E2836B14206D0224A3C329142BD
:1014000001D11A4600E02A461E49091F0A602BE056
:10141000B94213D0614517D0494522D051451DD05E
:1014200059451DD0714501D142461AE0B14202D161
:101430004FF0807215E0134EB14201D1012210E04D
:10144000104E1436B14201D110220AE00D4E28365A
:10145000B14206D00B4A3C32914201D11A4600E01B
:101460002A46074980394A60012180F8211000216D
:1014700080F82010416B01B188472046BDE8F09FFD
:10148000800002400804024070B5044600F05CF998
:101490000546601C02D004480078044400F054F96A
:1014A000401BA042FAD370BD0800002030B585B0C3
:1014B00000200090019002900390174801680029D5
:1014C00027D1012101601548416941F480714161D2
:1014D0004069022400F48070049041F20100CDE9DB
:1014E00000040325694603950D4800F01FF84FF6E8
:1014F0008070CDE90004694603950A4800F016F8AB
:101500004CF23370CDE9000469460395064800F0BB
:101510000DF805B030BD00000000002000100240B2
:101520000020014000180140001401402DE9F84F4F
:10153000DFF8C891002409F1040A0AF1040B2346DC
:101540000F270BF1040ED1E00125A54006EA0502A4
:10155000AA4276D1DFF8A8C14E68A6EB0C08664512
:101560002BD00DDC032E34D005DC36B3012E19D080
:10157000022E2FD11BE0112E16D0122E2AD119E0E7
:10158000B8F5881F19D006DCB8F5803F15D0B8F53E
:10159000801F1FD111E0B8F5001F0ED0B8F5041F51
:1015A00018D10AE0CB6815E0CB681B1D12E0CB68B0
:1015B00008330FE0CB680C330CE08B682BB1012BA8
:1015C0004FF0080303D0456104E0042302E0056105
:1015D00000E00023FF2A01D8064601E000F10406DE
:1015E0004FEA840501D9A5F12005D6F8008007FA55
:1015F00005FC28EA0C0803FA05F548EA0508C6F8D0
:1016000000804D68ED0070D53E4DAE6946F0010694
:10161000AE61AD6924F0030605F0010500953A4D71
:1016200006EB050CDCF80850A607360F07FA06F89B
:1016300025EA0805DFF8D480404503D14FF00008C3
:1016400025E052E0DFF8C880404502D14FF00108A4
:101650001DE0DFF8C080404502D14FF0020816E0DF
:10166000DFF8B480404502D14FF003080FE0DFF807
:10167000AC80404502D14FF0040808E0DFF8A080BC
:10168000404502D14FF0050801E04FF0060808FA86
:1016900006F848EA0508CCF808804D68D9F80060DB
:1016A000ED034D4601D5164300E096432E604D688C
:1016B000DAF80060AD03554601D5164300E09643C5
:1016C0002E604D68DBF80060ED025D4601D51643E3
:1016D00000E096432E604D68DEF80060AD0275466E
:1016E00001D5164300E096432E60641C0A68164636
:1016F000E2407FF429AFBDE8F88F0000000401400C
:1017000000001110001002400000014000080140DC
:10171000000C01400010014000140140001801407D
:10172000001C01408068084000D001207047C2685A
:1017300021EA02030A4043EA0241016170470AB10B
:10174000016170470904FBE70148806870470000A9
:101750000800002070B5040025D094F83D00002555
:1017600020B984F83C50204600F04EF9242084F83B
:101770003D002068016821F00101016020680168D6
:1017800041F4004101602068016821F400410160DA
:1017900000F07EFB4D4A6168914201D84C4900E05F
:1017A0004C49884201D2012070BD4B492368B0FBEF
:1017B000F1F15E6826F03F060E435E606368934277
:1017C00006D94FF4967359434FF47A73B1FBF3F192
:1017D0002368491C1E6A26F03F063143196261687E
:1017E000914210D84900401EB0FBF1F2521CC2F3E6
:1017F0000B02042A01D2042022E0B0FBF1F0401CCD
:10180000C0F30B001CE0A268F2B301EBC10303EBD1
:101810000116431EB3FBF6F35B1C43F480431B0528
:1018200049D092B301EBC10202EB0111401EB0FBA3
:10183000F1F0401CC0F30B0040F4804040F4004045
:101840002168CA694CF6FF739A431043C861D4E912
:10185000071001432068026822F0C00211430160B2
:10186000D4E9030101432068826848F2FF339A43B8
:1018700011438160D4E9050108432168CA6822F058
:10188000FF021043C86001E00EE016E02068016826
:1018900041F0010101602564202084F83D002563AA
:1018A00084F83E50002070BD01EB4106431EB3FB9F
:1018B000F6F35B1CB3E70120C2E701EB4101401ED8
:1018C000B0FBF1F0401CC0F30B00B7E7A0860100AD
:1018D00080841E0000093D0040420F002DE9F84FB2
:1018E0001F4690468A460446DDF82890FFF72CFFF5
:1018F000054694F83D0020287FD119230122404954
:101900002046009501F00CFC002876D194F83C00AC
:10191000012872D0012084F83C0020680168C907C2
:1019200003D1016841F0010101602068016821F4E0
:1019300000610160212084F83D00102084F83E0001
:1019400000262664C4F824806785608D20852D4894
:10195000E0622B464A465146204601F06DFB90B9A5
:10196000206841698069009036E02A464946204651
:1019700001F055FC50B1206C042804D120680168A6
:1019800041F4007101600120BDE8F88F606A2168B0
:1019900000780861606A401C6062618D491E618543
:1019A000218D491E89B2218522685369DB435B077B
:1019B0000BD451B100781061606A401C6062608D88
:1019C000401E6085208D401E20852A4649462046BF
:1019D00001F080FB0028CED1208D0028C5D154F81D
:1019E0003D0B016841F400710160202004F81E09DC
:1019F000E67766770020C7E7FFE70220C4E700002C
:101A0000020010000000FFFF10B586B00021009119
:101A10000191029103910068104988421BD1104C3A
:101A2000A06940F00800A061A069694600F00800C4
:101A300004904FF440600090122001900320039026
:101A40000848FFF773FDE06940F48000E061E06959
:101A500000F48000049006B010BD00000058004063
:101A600000100240000C01400248816802781144D5
:101A70008160704708000020074810B5016841F0F8
:101A800010010160032000F075F80F2000F006F847
:101A900000F024F8002010BD0020024070B50D4D6C
:101AA00004464FF47A712878B1FBF0F00A490968CE
:101AB000B1FBF0F000F003FE48B9102C07D2002271
:101AC0002146501E00F036F800206C6070BD0120E9
:101AD00070BD000008000020140000200C4808B56C
:101AE000816941F001018161816901F00101009189
:101AF000C16941F08051C161C06900F0805000901F
:101B00000448416821F0E06141F00071416008BD86
:101B10000010024000000140002809DB00F01F0215
:101B2000012191404009800000F1E020C0F800113F
:101B300070470000F0B40E4B1B680C46C3F3022341
:101B4000C3F10705042D00D90425191D072901D269
:101B5000002300E0DB1E012606FA05F1491E2140A4
:101B600099409E40761E16403143F0BC05F0F6B910
:101B70000CED00E0064900F0070208684FF6FF038D
:101B8000184040EA0220034A1043086070470000F2
:101B90000CED00E00000FA050149012008627047E1
:101BA00000000E4210B52CA401461DCC86B08DE875
:101BB0001D002DA02D4C00680490002004292FD07A
:101BC0000BDC01292FD0022928D100F071F96168BE
:101BD000C1F38131491C49001EE0082920D0102999
:101BE0001CD161682268D20118D5C1F38342C903B0
:101BF0001DF8020009D5616804AAC1F34041515C97
:101C00001B4AB2FBF1F1484301E01A4948436168BD
:101C1000490203D440000321B0FBF1F006B010BD2F
:101C200000F056F9FAE7226AC2F30121012903D133
:101C3000920701D5C803F1E7022905D1626A92072C
:101C400002D549F64040E9E70329E7D12168890335
:101C5000E4D54FF22440E1E7020304050607080932
:101C60000A0B0C0D0E0F10100102000000100240B4
:101C700000127A0000093D002DE9F843054600787E
:101C8000354CC00754D0E0690026C00008D4E06994
:101C900040F08050E061E069012600F08050009043
:101CA0002E480168C90512D40168804641F480714C
:101CB0000160FFF749FD074605E000BFFFF744FD5F
:101CC000C01B642823D8D8F80000C005F6D5206AC8
:101CD00010F4407021D0A98801F4407181421CD0D9
:101CE000206A1F49012220F440700A6000220A6025
:101CF0002062C00711D0FFF727FD074641F2883860
:101D000008E000BFFFF720FDC11B414502D90320B9
:101D1000BDE8F883206A8007F4D5206A696820F45A
:101D20004070084320621EB1E06920F08050E061FD
:101D30002878800705D56068A96820F440400843EA
:101D400060602878C00605D56068696920F4800065
:101D5000084360600020DBE7001002400070004094
:101D6000400442422DE9F0470F46050061D0434E42
:101D7000306800F00700B84209D2306820F0070050
:101D800038433060306800F00700B84251D128680D
:101D90003B4C810712D5400703D5606840F4E060F2
:101DA00060602878000703D5606840F46050606088
:101DB0006068A96820F0F000084360602878C007D8
:101DC00028D06868012810D02168022810D089071F
:101DD00000292EDA616821F0030101436160FFF7F9
:101DE000B3FC804641F288390DE021688903EFE7B2
:101DF0008901EDE7FFF7A8FCA0EB0801494502D9EE
:101E00000320BDE8F0876068696800F00C00B0EB63
:101E1000810FEFD1306800F00700B8420BD930686D
:101E200020F0070038433060306800F00700B84207
:101E300001D00120E5E72878400705D56068E9680A
:101E400020F4E060084360602878000706D56068E9
:101E5000296920F4605040EAC100606000F038F861
:101E60006168084AC1F30311515CC8400649086023
:101E700006480068FFF712FE0020C2E7002002407B
:101E800000100240168A0008140000200C000020F8
:101E90000448054900684968044AC1F30221515CBD
:101EA000C84070471400002000100240268A000835
:101EB0000448054900684968044AC1F3C221515CDD
:101EC000C84070471400002000100240268A000815
:101ED00012A185B00FC98DE80F0014A0144A006844
:101EE00004905168134801F00C03042B10D0082B08
:101EF0000ED1C1F38343C9031DF803000AD551680D
:101F000004AAC1F34041515C0A4A5043B0FBF1F0CE
:101F100005B0704708494843FAE70000020304058A
:101F2000060708090A0B0C0D0E0F10100102000025
:101F30000010024000127A0000093D002DE9F84F20
:101F4000040070D02078C04DC00749D06868C0F345
:101F50008100012807D06868C0F38100022809D1F8
:101F60006868C00306D52868800339D560680028F2
:101F7000E7D035E06068B0F5803F0BD010B1B0F528
:101F8000A02F11D0286820F480302860286820F421
:101F9000802002E0286840F480302860606890B1BA
:101FA000FFF7D2FB06460AE0286840F4802028604C
:101FB000F0E700BFFFF7C8FB801B642873D82868D0
:101FC0008003F7D50CE0FFF7BFFB064605E000BF36
:101FD000FFF7BAFB801B6428F0D828688003F7D489
:101FE00020789A4E80074FF001094FF0000839D54C
:101FF000686810F00C0F07D06868C0F381000228F1
:1020000009D16868C00306D42868800714D5206900
:10201000012808D110E02069B0B1C6F80090FFF7A0
:1020200093FB074605E00AE1FFF78EFBC01B022881
:10203000C4D828688007F7D52868616920F0F800BF
:1020400040EAC10028600DE0C6F80080FFF77CFB85
:10205000074604E0FFF778FBC01B022823D8286856
:102060008007F7D4207800072CD57948A169D9B129
:10207000C0F80090FFF768FB074604E0FFF764FB39
:10208000C01B02280FD8686A8007F7D571484FF443
:10209000FA510068B0FBF1F0009000BF0098411EBB
:1020A0000091FAD20EE080E0C0F80080FFF74CFB10
:1020B000074604E0FFF748FBC01B022875D8686A92
:1020C0008007F7D42078400760D5E8690027C00072
:1020D00008D4E86940F08050E861E869012700F021
:1020E000805000905C480168C90513D4016883469C
:1020F00041F480710160FFF727FB824606E000BFD4
:10210000FFF722FBA0EB0A0064284ED8DBF80000A2
:10211000C005F5D5E06801280AD008B1052813D01C
:10212000286A20F001002862286A20F0040002E0FA
:10213000286A40F001002862E06841F2883B98B1CB
:10214000FFF702FB82460BE0286A40F00400286299
:10215000EEE700BFFFF7F8FAA0EB0A0159455AD89D
:10216000286A8007F6D50CE0FFF7EEFA824605E014
:10217000FFF7EAFAA0EB0A0159454CD8286A800714
:10218000F6D41FB1E86920F08050E861E06988B3B7
:102190006968C1F38101022944D00228C6F8608031
:1021A00004D0FFF7D1FA044638E034E0FFF7CCFA68
:1021B000074604E0FFF7C8FAC01B02282BD828689E
:1021C0008001F7D4206AB0F5803F05D16868A16826
:1021D00020F4003008436860D4E9080108436968C6
:1021E00021F4741108436860C6F86090FFF7ACFAF8
:1021F000044606E025E000BFFFF7A6FA001B022810
:1022000009D828688001F7D51BE000BFFFF79CFACA
:10221000001B022802D90320BDE8F88F286880013E
:10222000F4D40EE00128F7D06868226A00F4803107
:10223000914204D1616A00F47010884201D00120FB
:10224000EAE70020E8E700000010024000004242F8
:102250008004424214000020007000407047704724
:1022600010B5044600680168C90717D04168C9075E
:1022700014D040684007204607D5FFF7F0FF2168DB
:102280006FF004004860042002E0FFF7E7FF012040
:1022900060742068416821F00101416010BDF8B50B
:1022A00005004FF0000016460C46009006D02CB1F9
:1022B00000226946284600F019F808B10120F8BD4F
:1022C000287B2070E87BE070697B6170A97BA1703E
:1022D00056B104F09FF9E070607804F09BF96070EB
:1022E000A07804F097F9A0700020F8BD2DE9F04720
:1022F00091460C465FEA00084AD084B3D8F8000043
:102300004068400744D4404604F029FA4FF4616223
:102310000546B0FBF2F1B0FBF2F302FB13503C2395
:10232000B0FBF3F0B5FBF2F6607002FB1650B0FBA9
:10233000F3F203FB1200A070182931D31820B1FB6F
:10234000F0F7B1FBF0F200FB12102070404604F0F1
:10235000FFF9411C04D0A84202D9461B02E017E055
:102360004FF0FF36A7EB071000EB4000C0EB00106A
:1023700005EBC0152946404604F040FA40B9701CF0
:1023800001D0711900E03146404604F023FA10B143
:102390000120BDE8F0873946404604F046F900E0E8
:1023A0002170B9F1000F0BD0207804F033F92070C0
:1023B000607804F02FF96070A07804F02BF9A07019
:1023C0000020E6E770B5040003D0607C002610B161
:1023D00005E0012070BD2674204600F043F802207D
:1023E0006074204600F01AF9042578BB204604F0FA
:1023F00073F958BB2068416821F007014160A0686B
:1024000020B11748016821F0010101601448001F44
:102410000168A26821F46071114301606068411C89
:1024200004D10120FFF7BEFB80B1401E21688A68FD
:1024300022F00F0242EA10428A602168CA6860F303
:102440000F02CA60204604F061F908B16574C0E764
:10245000E67301206073A0736074002070BD0000FB
:10246000306C004008B500680D49884217D1FFF76D
:1024700093FB0C48C16941F00061C161C0690A4920
:1024800000F0006000900120086000221146032047
:10249000FFF750FBBDE808400320FFF73DBB08BD38
:1024A00000280040001002403C0442422DE9F04167
:1024B0000D4604003BD0C5B3207C01283AD04FF034
:1024C000010884F8108002206074E87872B304F088
:1024D00098F8E073687804F094F86073A87804F0D2
:1024E00090F8A073C2B2617BE07B04F048F92073DE
:1024F0002870204604F033F94FF46161B0FBF1F12C
:10250000002518292DD91822B1FBF2F1A1EB0111F8
:1025100001EB4101C1EB011100EBC1163146204630
:1025200004F06CF90427C8B90BE000E004E00120D6
:10253000BDE8F0810220FBE7E07368786073A8785B
:10254000CFE7204604F004F9411C0AD0B04208D27B
:1025500006490144204604F03DF910B16774257422
:10256000E5E784F8118025740020E1E7805101003F
:102570002DE9F0410D46040024D01DB3207C012834
:1025800023D04FF0010884F810800220607428786E
:10259000EAB104F036F84FF4616100FB01F66878A7
:1025A00004F02FF8C0EB001006EB8006A87804F0CA
:1025B00028F835182946204604F020F9002604277B
:1025C00010BB0FE00120BDE8F0810220FBE74FF4D3
:1025D000616148436978C1EB011100EB8100A97882
:1025E0004518E7E72068416821F005014160204671
:1025F00004F0AEF8411C0AD0A84208D206490144B2
:10260000204604F0E7F810B167742674DAE784F81E
:10261000118026740020D6E78051010070B50400B7
:102620000AD02068416821F008014160FFF78CF86A
:1026300005464FF47A7608E0012070BDFFF784F874
:10264000401BB04201D9032070BD206840680007DC
:10265000F4D5002070BD70B515460E46040007D0B5
:10266000A069B0F5807F03D094F8410010B107E075
:10267000012070BD002084F84000204600F01DF8C5
:1026800004F108012068FEF7EDFD3146A2682068DC
:10269000FEF71CFED4E901022946236BFEF7C4FDB8
:1026A000A168206850F8212042F0010240F8212062
:1026B000012084F84100002070BDFEF7F7BE10B580
:1026C000401EB0F1807F01D3012010BD4FF0E02407
:1026D00060610F21601704F041FC0020A061072019
:1026E0002061002010BD70477047000070B590F861
:1026F0003C20012A2CD0012480F83C40022280F8A2
:102700003D2003685A689D6822F070060A683243CB
:102710005A60104B02689A420ED00F4B9A420BD06F
:10272000B2F1804F08D00D4B9A4205D00C4B9A4223
:1027300002D00C4B9A4204D1496825F0800319431A
:10274000916080F83D40002180F83C10084670BD43
:10275000022070BD002C0140003401400004004004
:1027600000080040000C004010B5040003D094F8AD
:102770003D0010B107E0012010BD002084F83C00AE
:10278000204600F01FF8022084F83D00211D20683B
:1027900004F0CAF9012084F8460084F83E0084F869
:1027A0003F0084F8400084F8410084F8420084F837
:1027B000430084F8440084F8450084F83D0000207C
:1027C00010BD000008B50068B0F1804F12D10A4872
:1027D000C16941F00101C161C069002200F001003E
:1027E000009011461C20FFF7A5F9BDE808401C2009
:1027F000FFF792B908BD00000010024090F83D10AC
:10280000012901D001207047022180F83D100168A4
:10281000CA6842F00102CA6000680E4988420ED0C0
:102820000D4988420BD0B0F1804F08D00B49884247
:1028300005D00B49884202D00A49884204D18168F8
:1028400001F00701062903D0016841F00101016090
:1028500000207047002C014000340140000400407B
:1028600000080040000C004070B5044690F83C00A1
:10287000012817D0012584F83C50022084F83D003F
:102880002068826822F0770222F47F428260086822
:10289000502830D00DDC20284DD005DC98B310280E
:1028A0003BD148E0022070BD302844D0402834D1CC
:1028B00039E0602828D0702806D0B0F5805F2CD091
:1028C000B0F5005F29D10AE0CB68D1E90121206889
:1028D00004F070F92068816841F0770109E0CB6865
:1028E000D1E90121206804F065F92068816841F48C
:1028F0008041816011E0CA684968206804F06CF981
:102900005021206807E016E0CA684968206804F092
:1029100074F96021206804F057F984F83D500020D4
:1029200084F83C0070BDCA684968206804F054F916
:1029300040212068EFE7226801461046EBE7704728
:1029400070B50446006801694FF00005C943890766
:1029500015D4C168C943890711D4E91E016101205A
:102960002077206880698007204602D0FFF7E7FFC4
:1029700004E000F098F8204600F096F825772068EB
:102980000169C943490717D4C168C943490713D42A
:102990006FF004010161022020772068806910F443
:1029A000407F204602D0FFF7CAFF04E000F07BF82A
:1029B000204600F079F8257720680169C9430907A6
:1029C00016D4C168C943090712D46FF00801016128
:1029D000042020772068C0698007204602D0FFF7D6
:1029E000AEFF04E000F05FF8204600F05DF82577C8
:1029F00020680169C943C90617D4C168C943C9061B
:102A000013D46FF010010161082020772068C0699D
:102A100010F4407F204602D0FFF791FF04E000F061
:102A200042F8204600F040F8257720680169C94344
:102A3000C90708D1C168C943C90704D1891E01610A
:102A4000204600F033F820680169C943090609D41B
:102A5000C168C943090605D46FF0800101612046B1
:102A6000FFF741FE20680169C943490609D4C168DE
:102A7000C943490605D46FF040010161204600F0CA
:102A80002DF820680169C94389060BD4C168C94380
:102A9000890607D46FF0200101612046BDE870402F
:102AA000FFF722BE70BD70477047000010B509499E
:102AB0000068096888420BD1FEF72AFC03F04AFF40
:102AC00003F0B0FEBDE8104020210348FEF72FBE02
:102AD00010BD00004C010020000C01407047704701
:102AE00070470000F8B5026804461068D168536961
:102AF00010F00F0F4FF0000553D003F0010601F462
:102B0000907737435FD0C20705D0CA0503D5226C42
:102B100042F001022264420705D5DA0703D0226C95
:102B200042F002022264820705D5DA0703D0226C44
:102B300042F004022264020707D501F0200232436A
:102B400003D0226C42F008022264226C002A34D0A6
:102B5000800604D5880602D5204604F0A9F820682E
:102B60004069216CC0F38010090700D430B32046BF
:102B700004F086F82068416949061BD5416921F0B7
:102B800040014161A06BA8B158494163A06BFEF7B9
:102B9000E3FB002811D0A06B416B01B0BDE8F04011
:102BA000084783060FD58B060DD52046BDE8F840B3
:102BB00004F07EB82046FFF793FFF8BD2046FFF7EC
:102BC0008FFF2564F8BD266B2023012E52D1C60647
:102BD00050D5CE064ED5106850680090506940061A
:102BE0002AD5A16B086840680004000CEAD0A68DC5
:102BF0008642E7D9E0858869202818D0D06820F47B
:102C00008070D0602068416921F001014161206835
:102C1000416921F04001416184F83E30256320681C
:102C2000C16821F01001C160A06BFEF772FBA08D9E
:102C3000E18D401A81B219E0A08DE18D401A81B278
:102C4000E08D0028BED00029BCD0D06820F4907060
:102C5000D0602068426922F00102426184F83E306F
:102C600025632068C26822F01002C2602046FFF788
:102C700036FFF8BD05062BD50D0629D594F83D0085
:102C80002128F6D1A068B0F5805F01D12069B0B1EC
:102C9000206A411C2162216800784860E08C401E57
:102CA0000004000CE084E4D12068C16821F08001B8
:102CB000C1602068C16841F04001C160F8BD206A70
:102CC0000088C0F308005060206A801C2062E5E79D
:102CD0004006F3D54806F1D5D168204621F04001E1
:102CE000D16084F83D3000F08EF9F8BD716C0008B9
:102CF00070B5040004D094F83D00002510B106E042
:102D0000012070BD84F83C50204600F023F82420B8
:102D100084F83D002068C16821F40051C16020465C
:102D200004F022F82068016921F4904101612068D3
:102D3000416921F02A0141612068C16841F40051D4
:102D4000C1602564202084F83D0084F83E00002006
:102D500070BD0000F0B585B0002400940194029489
:102D600003940368464F022046490322464D46021B
:102D7000BB4225D18B6943F480438B618B6903F49B
:102D8000804304938B6943F004038B618969039248
:102D900001F0040104910102CDE9001069462846C2
:102DA000FEF7C4FBCDE90064694628460294FEF7AD
:102DB000BDFB002211462520FEF7BCFE252028E0A1
:102DC000324FBB4229D1CB6943F40033CB61CB698D
:102DD00003F4003304938B6943F004038B61896926
:102DE000039201F0040104910421CDE90010694629
:102DF0002846FEF79BFB0820CDE9000469462846DB
:102E00000294FEF793FB002211462620FEF792FE65
:102E10002620FEF781FE05B0F0BD1D4DAB42FAD174
:102E2000CB6943F48023CB61CB6903F48023049303
:102E30008B6943F010038B618969164D01F0100115
:102E4000CDE90321CDE9006069462846FEF76EFB17
:102E5000E814CDE90004694628460294FEF766FBB3
:102E60000D48416821F0300141F0E06141F010016E
:102E70004160002211462720FEF75CFE2720C8E7AC
:102E800000380140001002400008014000440040AA
:102E900000480040001001400000014090F83E3022
:102EA000202B0ED159B152B190F83C30012B08D0F3
:102EB000012380F83C300023036303F0B1BF0120FD
:102EC000704702207047000070B5064600681B4935
:102ED00001251B4C884213D1601C1A4A6168007896
:102EE0005054491C61600A2800D12570402901D343
:102EF00003F096FE12490122491C1348FFF7CEFF4A
:102F000012493068884217D10D480E4AC01C403221
:102F10000178A0681154401CA0600A2900D1A57056
:102F2000402801D303F090FEBDE87040044901221F
:102F3000C91C0748FFF7B2BF70BD00000038014050
:102F4000400000201B0900209401002000440040A4
:102F5000D80100202DE9F843044690F83D001F46B3
:102F600016460D4620284CD1C5B1BEB194F83C00A0
:102F7000012846D0012084F83C004FF00008C4F836
:102F80004080212084F83D00FEF7DEFBA6848146C8
:102F9000E684A068B0F5805F03D004E00120BDE8BE
:102FA000F883206928B12E465FF0000584F83C8044
:102FB0000EE00026FAE78021204603F04CFFA0B97E
:102FC000AEB116F8010B21684860E08C401EE08429
:102FD000E08C4B464FF0000200970028EBD14FF0F9
:102FE0004001204603F037FF30B10320D7E735F822
:102FF000020BC0F30800E6E7202084F83D00002023
:10300000CDE70220CBE77047FEE701684A69D2436B
:1030100052050FD46FF480624A61002140F8301FDE
:10302000202242738173026942F00402026101733B
:103030000120704700207047F8B50446C06A1E465C
:103040000D461746082807D0012805D010F5803F07
:1030500002D0206B122804D12068016841F48071ED
:103060000160134600224FF001112046009600F047
:1030700057F840B120680068C00502D54FF40070D1
:1030800020640320F8BD2069B0F5804F0ED00620E3
:10309000216800EAD51040F0F000086133463A4656
:1030A0000B49204600F070F878B902E005F0FE0008
:1030B00000E0E8B221680861054933463A46891FB5
:1030C000204600F061F80028DCD00120F8BD0000A7
:1030D0000800010070B516460D4604460DE0204676
:1030E000FFF793FF08B1012070BD681C05D0FEF703
:1030F0002BFB801BA84207D835B120684069C0432C
:103100004007ECD4002070BD002044F8300F20218F
:103110006173A073216941F0200121612073E2E70E
:103120002DE9F0471E4690460D460446C1F3074779
:10313000DDF8209008E0701C06D0FEF705FBA0EB40
:103140000900B0420FD876B12068012F18D08069ED
:1031500025EA00000004000C14D000214145EAD00B
:103160000020BDE8F087002044F8300F2021617373
:10317000A073216941F02001216120730120F0E753
:103180004069E5E70121E9E72DE9F0479A469146D4
:103190000E46044600254FF02008C1F3074725E0FE
:1031A00020684069C043400514D42068016841F498
:1031B0000071016021686FF480604861256384F8C4
:1031C0003D8084F83E50206C40F00400206484F878
:1031D0003C501FE0B9F1FF3F08D0FEF7B5FAA0EB75
:1031E0000A0149450CD8B9F1000F09D02068012F18
:1031F00013D0806926EA00000004000C0BD0CFE752
:1032000044F8305F84F80D80A573206940F02000F9
:10321000206125730120BDE8F0874069EAE770B5B9
:1032200016460D4604460DE02046FFF7EEFE08B1B7
:10323000012070BD681C05D0FEF786FA801BA842ED
:1032400007D835B120684069C0430006ECD400209F
:1032500070BD002044F8300F20216173A0732169F4
:1032600041F0200121612073E2E700007CB50546B2
:10327000EF208DF80000154C01208DF801006168E9
:10328000080E8DF80200080C8DF80300080A8DF86E
:10329000040007208DF805108DF8060000268DF833
:1032A000076026700BE00120FEF7EEF8207830B1C1
:1032B000267069460648FCF7C5FF002804D16D1E3C
:1032C0002D042D0CEFD100207CBD000060000020FB
:1032D000A50900207CB5002237493848FFF706F8D9
:1032E0003548817800914378027835A1384803F059
:1032F00021FE482436480021CDE900402346A200A3
:10330000084602F0FBFC33480068FDF789FA0246E4
:1033100029480B4630A1C01D03F00CFE3048006860
:10332000FDF77EFA024624480B462BA10C3003F031
:1033300001FE21482BA1401E90F90020123003F01D
:10334000F9FD0025294E4823CDE900651A461946A6
:10335000902000F0D5F82648CDE9000548239021BB
:103360001A46084600F0CCF8CDE9006548231A4615
:10337000D821902000F0C4F80F484823C01DCDE9A3
:103380000040B4221946002002F0B8FC0A48482345
:103390000C30CDE90040B4229021002002F0AEFCB8
:1033A000054848231130CDE90040B422D82100203F
:1033B00002F0A4FC7CBD00002100002038010020A8
:1033C000253032643A253032643A253032640000C8
:1033D000F40800203800002025322E31660000005D
:1033E0003C00002025642E3000000000A04D0108A4
:1033F0002850010870B50A490646002408884D88FF
:1034000021464543204602F0C3FB02F0B9FCB0B2AE
:10341000044901E00880641CAC42FBD370BD00008D
:10342000360B00200008006C2DE9F04F33492C24A6
:103430000A4688712A2592882B2645F2105B4FF4A4
:10344000305E4FF448774FF0F00949F2413A4FF4BB
:10345000A07845F2103C4FF4F07358B1A1F8008009
:10346000A1F80290524501D0624529D10C814D81CD
:103470008E8139E0A1F80090A1F80280524501D078
:10348000624508D10C814D818E81624531D1A1F810
:1034900000804B802DE05A4508D1A1F808E04FF498
:1034A000285048814FF42C50888106E0A2F5C8507E
:1034B00063381ED10C814E818D810B804F8018E0C6
:1034C0005A4508D1A1F808E04FF4285048814FF43C
:1034D0002C50888106E0A2F5C850633804D10C81D5
:1034E0004D818E810F804B80624502D10B80A1F807
:1034F0000280BDE8F04F002002F06EBA360B0020CB
:103500002DE9FF4F1F460C468A46580700D0012080
:1035100000EBD70050431FFA80F90025DFF86CB0AC
:103520002FE00D984FF00008465D300602D5184890
:10353000026803E00E9828B91548426821460098B1
:1035400000F028F87006060E641CBBF80200A4B256
:10355000A04218D9A4EB0A00B84209D100985446F9
:10356000401C80B20090BBF8001081420BD906E0ED
:1035700008F101001FFA80F8B8F1080FD5D36D1CCF
:10358000ADB24D45CDD3BDE8FF8F0000360B002016
:103590007C0000202DE9F041354C90460D46024656
:1035A000060AA18820462F0A4089A1F51343413B12
:1035B0000CD0A1F5A643103B08D0A1F5AA43103BBF
:1035C00010D0A1F5C853633B25D048E002F0CCFBF6
:1035D000304602F0BDFBD0B202F0BAFBA08902F087
:1035E000C3FB36E002F0C0FB304602F0B1FB60895D
:1035F000401C80B202F0B8FBD0B202F0A9FBA08957
:1036000002F0B2FB384602F0A3FBA089401C80B256
:1036100002F0AAFB20E0A17919B92188891A491E74
:103620008AB202F0A1FB160A304602F091FBD0B23A
:1036300002F08EFB304602F08BFBD0B202F088FB2A
:10364000A08902F091FB384602F082FBE8B202F05A
:103650007FFB384602F07CFBE8B202F079FB0549BB
:1036600020890880891CA1F80080BDE8F081000055
:10367000360B0020FE07006C2DE9F05F3220FDF7CD
:1036800003FFD32002F070FB02F076F9FE4CA0801D
:1036900002F072F9A08002F06FF94FF6FF7909EAA3
:1036A0000020A08002F068F9A18849F24136084361
:1036B000A08045F2103745F2105541F66318B0422C
:1036C00047D0D42002F050FB02F056F9A08002F05F
:1036D00053F9A08002F050F909EA00204A46A08080
:1036E00002F04AF9A1880843A080B84231D04FF4D3
:1036F0005A4002F039FB02F03FF9A0804FF45B40E2
:1037000002F032FB02F038F902EA0020A0804FF408
:103710005C4002F029FB02F02FF9A1880843A08049
:10372000B0F5004F7DD0A84213D0A12002F01CFBC1
:1037300002F022F9A08002F01FF902EA0020A08026
:1037400002F01AF9A1880843A0F5AE41A0806139C2
:1037500068D080B2B04266D1CF2002F005FB0020D5
:1037600002F0F6FAC12002F0F3FA302002F0F0FA8B
:10377000ED2002F0F9FA642002F0EAFA032002F0E8
:10378000E7FA122002F0E4FA812002F0E1FAE820E0
:1037900002F0EAFA852002F0DBFA102002F0D8FAF3
:1037A0007A2002F0D5FACB2002F0DEFA392002F0BE
:1037B000CFFA2C2002F0CCFA002002F0C9FA342013
:1037C00002F0C6FA022002F0C3FAF72002F0CCFAA7
:1037D000202002F0BDFAEA2002F0C6FA002002F032
:1037E000B7FA002002F0B4FAC02002F0BDFA1B20A4
:1037F00002F0AEFAC12002F0B7FA012002F0A8FAF6
:10380000C52002F0B1FA302002F0A2FA302002F016
:103810009FFAC72002F0A8FAB72002F099FA3620E2
:1038200002E0B5E0B0E0B5E002F09EFA482002F018
:103830008FFA3A2002F098FA552002F089FAB12066
:1038400002F092FA002002F083FA1A2002F080FAC5
:10385000B62002F089FA0A2002F07AFAA22002F0D9
:1038600077FAF22002F080FA002002F071FA2620A6
:1038700002F07AFA012002F06BFAE02002F074FA0A
:103880000F2002F065FA2A2002F062FA282002F0E6
:103890005FFA082002F05CFA0E2002F059FA0820C4
:1038A00002F056FA542002F053FAA92002F050FA1E
:1038B000432002F04DFA0A2002F04AFA0F2002F0EB
:1038C00047FA002002F044FA002002F041FA0020FA
:1038D00002F03EFA002002F03BFAE12002F044FA46
:1038E000002002F035FA152002F032FA172002F01B
:1038F0002FFA072002F02CFA112002F029FA0620F4
:1039000002F026FA2B2002F023FA562002F020FAC9
:103910003C2002F01DFA052002F01AFA102002F0F5
:1039200017FA0F2002F014FA3F2002F011FA3F209C
:1039300002F00EFA0F2002F00BFA2B2002F014FA1C
:10394000002002F005FA002002F002FA012002F045
:10395000FFF93F2002F0FCF92A2002F005FA0020CE
:1039600002F0F6F9002002F0F3F9002002F0F0F97D
:10397000EF2002F0EDF9112002F0F6F97820FDF7C2
:1039800083FD292001F008BFA4F8048001F009BFDD
:10399000A580FDE3B84276D1ED2002F0E5F90120E3
:1039A00002F0D6F9FE2002F0D3F9EE2002F0DCF9A5
:1039B000DE2002F0CDF9212002F0CAF9F12002F058
:1039C000D3F9012002F0C4F9DF2002F0CDF9102074
:1039D00002F0BEF9C42002F0C7F98F2002F0B8F956
:1039E000C62002F0C1F9002002F0B2F9E22002F094
:1039F000AFF9E22002F0ACF9E22002F0A9F9BF2011
:103A000002F0B2F9AA2002F0A3F9B02002F0ACF95A
:103A10000D2002F09DF9002002F09AF90D2002F02D
:103A200097F9002002F094F9112002F091F900209A
:103A300002F08EF9192002F08BF9002002F088F9CB
:103A4000212002F085F9002002F082F92D2002F0F9
:103A50007FF9002002F07CF93D2002F079F9002086
:103A600002F076F95D2002F073F9002002F070F99F
:103A70005D2002F06DF9002002F06AF9B12002F039
:103A800073F9802002E0FDE3360B002002F060F9BC
:103A9000002002F05DF98B2002F05AF9002002F0BC
:103AA00057F9962002F054F9002002F051F9B220A3
:103AB00002F05AF9002002F04BF9002002F048F918
:103AC000022002F045F9002002F042F9032002F042
:103AD0003FF9002002F03CF9B32002F045F9002044
:103AE00002F036F9002002F033F9002002F030F93C
:103AF000002002F02DF9002002F02AF9002002F047
:103B000027F9002002F024F9002002F021F900201A
:103B100002F01EF9002002F01BF9002002F018F953
:103B2000002002F015F9002002F012F9002002F046
:103B30000FF9002002F00CF9002002F009F9002032
:103B400002F006F9002002F003F9002002F000F96B
:103B5000002002F0FDF8002002F0FAF8002002F048
:103B6000F7F8002002F0F4F8002002F0F1F8B42099
:103B700002F0FAF88B2002F0EBF8002002F0E8F8EF
:103B8000962002F0E5F8002002F0E2F8A12002F011
:103B9000DFF8002002F0DCF8B52002F0E5F80220A2
:103BA00002F0D6F8002002F0D3F8032002F0D0F89B
:103BB000002002F0CDF8042002F0CAF8002002F044
:103BC000C7F8B62002F0D0F8002002F0C1F80020BB
:103BD00002F0BEF8B72002F0C7F8002002F0B8F8F3
:103BE000002002F0B5F83F2002F0B2F8002002F009
:103BF000AFF85E2002F0ACF8002002F0A9F86420D3
:103C000002F0A6F8002002F0A3F88C2002F0A0F841
:103C1000002002F09DF8AC2002F09AF8002002F09B
:103C200097F8DC2002F094F8002002F091F8702060
:103C300002F08EF8002002F08BF8902002F088F855
:103C4000002002F085F8EB2002F082F8002002F05C
:103C50007FF8DC2002F07CF8002002F079F8B82030
:103C600002F082F8002002F073F8002002F070F8F1
:103C7000002002F06DF8002002F06AF8002002F047
:103C800067F8002002F064F8002002F061F80020DC
:103C900002F05EF8BA2002F067F8242002F058F82B
:103CA000002002F055F8002002F052F8002002F047
:103CB0004FF8C12002F058F8202002F049F8002007
:103CC00002F046F8542002F043F8002002F040F8D9
:103CD000FF2002F03DF8002002F03AF8C22002F086
:103CE00043F80A2002F034F8002002F031F80420F2
:103CF00002F02EF8002002F02BF8C32002F034F876
:103D00003C2002F025F8002002F022F83A2002F0D0
:103D10001FF8002002F01CF8392002F019F80020EA
:103D200002F016F8372002F013F8002002F010F825
:103D30003C2002F00DF8002002F00AF8362002F0D4
:103D400007F8002002F004F8322002F001F8002009
:103D500001F0FEFF2F2001F0FBFF002001F0F8FF33
:103D60002C2001F0F5FF002001F0F2FF292001F0E6
:103D7000EFFF002001F0ECFF262001F0E9FF00201A
:103D800001F0E6FF242001F0E3FF002001F0E0FF56
:103D9000242001F0DDFF002001F0DAFF232001F0F4
:103DA000D7FF002001F0D4FF3C2001F0D1FF00201C
:103DB00001F0CEFF362001F0CBFF002001F0C8FF5C
:103DC000322001F0C5FF002001F0C2FF2F2001F0DA
:103DD000BFFF002001F0BCFF2C2001F0B9FF002044
:103DE00001F0B6FF292001F0B3FF002001F0B0FF81
:103DF000262001F0ADFF002001F0AAFF242001F0F1
:103E0000A7FF002001F0A4FF242001F0A1FF002063
:103E100001F09EFF232001F09BFF002001F098FF9E
:103E2000C42001F0A1FF622001F092FF002001F008
:103E30008FFF052001F08CFF002001F089FF842016
:103E400001F086FF002001F083FFF02001F080FFE9
:103E5000002001F07DFF182001F07AFF002001F022
:103E600077FFA42001F074FF002001F071FF1820FB
:103E700001F06EFF002001F06BFF502001F068FFA1
:103E8000002001F065FF0C2001F062FF002001F02E
:103E90005FFF172001F05CFF002001F059FF952023
:103EA00001F056FF002001F053FFF32001F050FF16
:103EB000002001F04DFFE62001F04AFF002001F054
:103EC00047FFC52001F050FF322001F041FF0020E4
:103ED00001F03EFF442001F03BFF002001F038FFDD
:103EE000652001F035FF002001F032FF762001F05F
:103EF0002FFF002001F02CFF882001F029FF002077
:103F000001F026FFC62001F02FFF202001F020FF46
:103F1000002001F01DFF172001F01AFF002001F022
:103F200017FF012001F014FF002001F011FFC7204E
:103F300001F01AFF002001F00BFF002001F008FF44
:103F4000002001F005FF002001F002FFC82001F071
:103F50000BFF002001F0FCFE002001F0F9FE002024
:103F600001F0F6FE002001F0F3FEC92001F0FCFE96
:103F7000002001F0EDFE002001F0EAFE002001F03B
:103F8000E7FE002001F0E4FE002001F0E1FE002049
:103F900001F0DEFE002001F0DBFE002001F0D8FE83
:103FA000002001F0D5FE002001F0D2FE002001F03B
:103FB000CFFE002001F0CCFE002001F0C9FE002061
:103FC00001F0C6FE002001F0C3FE002001F0C0FE9B
:103FD000E02001F0C9FE162001F0BAFE002001F039
:103FE000B7FE1C2001F0B4FE002001F0B1FE21203C
:103FF00001F0AEFE002001F0ABFE362001F0A8FE7D
:10400000002001F0A5FE462001F0A2FE002001F0F4
:104010009FFE522001F09CFE002001F099FE6420DA
:1040200001F096FE002001F093FE7A2001F090FE50
:10403000002001F08DFE8B2001F08AFE002001F0AF
:1040400087FE992001F084FE002001F081FEA82067
:1040500001F07EFE002001F07BFEB92001F078FE29
:10406000002001F075FEC42001F072FE002001F076
:104070006FFECA2001F06CFE002001F069FED22024
:1040800001F066FE002001F063FED92001F060FE21
:10409000002001F05DFEE02001F05AFE002001F05A
:1040A00057FEF32001F054FE002001F051FEE12004
:1040B00001F05AFE162001F04BFE002001F048FEF0
:1040C0001C2001F045FE002001F042FE222001F0FC
:1040D0003FFE002001F03CFE362001F039FE0020BA
:1040E00001F036FE452001F033FE002001F030FEE5
:1040F000522001F02DFE002001F02AFE642001F084
:1041000027FE002001F024FE7A2001F021FE00208D
:1041100001F01EFE8B2001F01BFE002001F018FEB6
:10412000992001F015FE002001F012FEA82001F0F8
:104130000FFE002001F00CFEB92001F009FE002066
:1041400001F006FEC42001F003FE002001F000FE95
:10415000CA2001F0FDFD002001F0FAFDD22001F09F
:10416000F7FD002001F0F4FDD82001F0F1FD002062
:1041700001F0EEFDE02001F0EBFD002001F0E8FD94
:10418000F32001F0E5FD002001F0E2FDE22000E077
:1041900082E301F0E9FD052001F0DAFD002001F0E5
:1041A000D7FD0B2001F0D4FD002001F0D1FD1B2034
:1041B00001F0CEFD002001F0CBFD342001F0C8FD60
:1041C000002001F0C5FD442001F0C2FD002001F0F7
:1041D000BFFD4F2001F0BCFD002001F0B9FD6120C2
:1041E00001F0B6FD002001F0B3FD792001F0B0FD33
:1041F000002001F0ADFD882001F0AAFD002001F0B3
:10420000A7FD972001F0A4FD002001F0A1FDA6204C
:1042100001F09EFD002001F09BFDB72001F098FD0C
:10422000002001F095FDC22001F092FD002001F078
:104230008FFDC72001F08CFD002001F089FDD12009
:1042400001F086FD002001F083FDD62001F080FD05
:10425000002001F07DFDDD2001F07AFD002001F05D
:1042600077FDF32001F074FD002001F071FDE320E3
:1042700001F07AFD052001F06BFD002001F068FDE2
:104280000A2000E006E301F063FD002001F060FD7C
:104290001C2001F05DFD002001F05AFD332001F0EB
:1042A00057FD002001F054FD442001F051FD002095
:1042B00001F04EFD502001F04BFD002001F048FDC3
:1042C000622001F045FD002001F042FD782001F060
:1042D0003FFD002001F03CFD882001F039FD002069
:1042E00001F036FD972001F033FD002001F030FD94
:1042F000A62001F02DFD002001F02AFDB72001F0DD
:1043000027FD002001F024FDC22001F021FD002046
:1043100001F01EFDC72001F01BFD002001F018FD7B
:10432000D12001F015FD002001F012FDD52001F093
:104330000FFD002001F00CFDDD2001F009FD002043
:1043400001F006FDF32001F003FD002001F000FD67
:10435000E42001F009FD012001F0FAFC002001F049
:10436000F7FC012001F0F4FC002001F0F1FC022038
:1043700001F0EEFC002001F0EBFC2A2001F0E8FC4B
:10438000002001F0E5FC3C2001F0E2FC002001F0FF
:10439000DFFC4B2001F0DCFC002001F0D9FC5D20AB
:1043A00001F0D6FC002001F0D3FC742001F0D0FC19
:1043B000002001F0CDFC842001F0CAFC002001F0B7
:1043C000C7FC932001F0C4FC002001F0C1FCA22036
:1043D00001F0BEFC002001F0BBFCB32001F0B8FCF2
:1043E000002001F0B5FCBE2001F0B2FC002001F07D
:1043F000AFFCC42001F0ACFC002001F0A9FCCD20F2
:1044000001F0A6FC002001F0A3FCD32001F0A0FCE9
:10441000002001F09DFCDD2001F09AFC002001F05D
:1044200097FCF32001F094FC002001F091FCE520C2
:1044300001F09AFC002001F08BFC002001F088FCC8
:10444000002001F085FC002001F082FC022001F038
:104450007FFC002001F07CFC292001F079FC002089
:1044600001F076FC3C2001F073FC002001F070FCB0
:104470004B2001F06DFC002001F06AFC5D2001F092
:1044800067FC002001F064FC742001F061FC002056
:1044900001F05EFC842001F05BFC002001F058FC80
:1044A000932001F055FC002001F052FCA22001F005
:1044B0004FFC002001F04CFCB32001F049FC00202F
:1044C00001F046FCBE2001F043FC002001F040FC5E
:1044D000C42001F03DFC002001F03AFCCD2001F0A9
:1044E00037FC002001F034FCD32001F031FC002027
:1044F00001F02EFCDC2001F02BFC002001F028FC58
:10450000F32001F025FC002001F022FCE62001F060
:104510002BFC112001F01CFC002001F019FC3420C0
:1045200001F016FC002001F013FC562001F010FCF5
:10453000002001F00DFC762001F00AFC002001F0C3
:1045400007FC772001F004FC002001F001FC66204C
:1045500001F0FEFB002001F0FBFB882001F0F8FBDE
:10456000002001F0F5FB992001F0F2FB002001F0A2
:10457000EFFBBB2001F0ECFB002001F0E9FB9920F0
:1045800001F0E6FB002001F0E3FB662001F0E0FB18
:10459000002001F0DDFB552001F0DAFB002001F0E6
:1045A000D7FB552001F0D4FB002001F0D1FB4520C2
:1045B00001F0CEFB002001F0CBFB432001F0C8FB53
:1045C000002001F0C5FB442001F0C2FB002001F0F7
:1045D000BFFBE72001F0C8FB322001F0B9FB00204F
:1045E00001F0B6FB552001F0B3FB002001F0B0FB59
:1045F000762001F0ADFB002001F0AAFB662001F05F
:10460000A7FB002001F0A4FB672001F0A1FB002024
:1046100001F09EFB672001F09BFB002001F098FB5E
:10462000872001F095FB002001F092FB992001F01A
:104630008FFB002001F08CFBBB2001F089FB0020E8
:1046400001F086FB992001F083FB002001F080FB44
:10465000772001F07DFB002001F07AFB442001F07F
:1046600077FB002001F074FB562001F071FB002065
:1046700001F06EFB232001F06BFB002001F068FBD2
:10468000332001F065FB002001F062FB452001F0C2
:104690005FFB002001F05CFBE82001F065FB0020DF
:1046A00001F056FB002001F053FB992001F050FB74
:1046B000002001F04DFB872001F04AFB002001F0B3
:1046C00047FB882001F044FB002001F041FB7720EC
:1046D00001F03EFB002001F03BFB662001F038FBBF
:1046E000002001F035FB882001F032FB002001F0B2
:1046F0002FFBAA2001F02CFB002001F029FBBB209E
:1047000001F026FB002001F023FB992001F020FBA3
:10471000002001F01DFB662001F01AFB002001F0D3
:1047200017FB552001F014FB002001F011FB552070
:1047300001F00EFB002001F00BFB442001F008FB10
:10474000002001F005FB442001F002FB002001F0F5
:10475000FFFA552001F0FCFA002001F0F9FAE920F7
:1047600001F002FBAA2001F0F3FA002001F0F0FAB8
:10477000002001F0EDFA002001F0EAFA002001F03B
:10478000F3FAAA2001F0E4FACF2001F0EDFA0020BC
:1047900001F0DEFA002001F0DBFA002001F0D8FA87
:1047A000002001F0D5FA002001F0D2FA002001F03B
:1047B000CFFA002001F0CCFA002001F0C9FA002065
:1047C00001F0C6FA002001F0C3FA002001F0C0FA9F
:1047D000002001F0BDFA002001F0BAFA002001F03B
:1047E000B7FA002001F0B4FA002001F0B1FA00207D
:1047F00001F0AEFAF02001F0B7FA002001F0A8FABB
:10480000502001F0A5FA002001F0A2FA002001F0EA
:104810009FFA002001F09CFAF32001F0A5FA002095
:1048200001F096FAF92001F09FFA062001F090FAC3
:10483000102001F08DFA292001F08AFA002001F001
:1048400087FA3A2001F090FA552001F081FA112000
:1048500001F08AFA6420FCF717FE292001F084FA9F
:10486000352001F081FA002001F072FA512001F0A8
:104870007BFAFF2001F06CFA532001F075FA2C202E
:1048800001F066FA552001F06FFA822001F060FA1B
:104890002C20FCE3A8427CD14FF4704355211846EC
:1048A00001F078FA4FF2010AAA21504601F072FA9B
:1048B0004FF2020B5221584601F06CFA08214FF2D8
:1048C000030001F067FA01214FF2040001F062FADF
:1048D0000D214FF4304001F05DFA0D214BF2010043
:1048E00001F058FA0D214BF2020001F053FA342185
:1048F0004FF4364001F04EFA34214BF2016001F0E2
:1049000049FA34214BF2026001F044FA0D214FF4D0
:10491000314001F03FFA0D214BF2011001F03AFA5B
:104920000D214BF2021001F035FA34214FF43740DB
:1049300001F030FA34214BF2017001F02BFA3421EE
:104940004BF2027001F026FA00214FF4324001F0E0
:1049500021FA00214BF2012001F01CFA00214BF258
:10496000022001F017FA24214FF4384001F012FA26
:1049700024214BF6010001F00DFA24214BF6020030
:1049800001F008FA01214FF43F4001F003FA0F2132
:1049900000E0FDE34FF4334001F0FCF90F214BF24E
:1049A000013001F0F7F90F214BF2023001F0F2F97A
:1049B00034214FF4394001F0EDF934214BF6011068
:1049C00001F0E8F934214BF6021001F0E3F9082177
:1049D0004FF4354001F0DEF908214BF2015001F0AF
:1049E000D9F908214BF2025001F0D4F903214FF418
:1049F000424001F0CFF924214FF43A4001F0CAF9C6
:104A000024214BF6012001F0C5F924214BF60220A8
:104A100001F0C0F900214FF43C4001F0BBF97821CE
:104A20004BF6014001F0B6F900214BF6024001F0CF
:104A3000B1F900214FF43D4001F0ACF978214BF67B
:104A4000015001F0A7F900214BF6025001F0A2F944
:104A500000214FF43E4001F09DF964214BF60160C6
:104A600001F098F900214FF4514001F093F93321FE
:104A70004DF2011001F08EF900214DF2021001F00B
:104A800089F934214DF2031001F084F900214DF22F
:104A9000041001F07FF93A214DF2051001F07AF986
:104AA00000214DF2061001F075F94A214DF2071070
:104AB00001F070F900214DF2081001F06BF95C2152
:104AC0004DF2091001F066F900214DF20A1001F0D3
:104AD00061F981214DF20B1001F05CF900214DF2DA
:104AE0000C1001F057F9A6214DF20D1001F052F90A
:104AF00000214DF20E1001F04DF9E5214DF20F109D
:104B000001F048F901214DF2101001F043F9132191
:104B10004DF2111001F03EF901214DF2121001F099
:104B200039F954214DF2131001F034F901214DF2FD
:104B3000141001F02FF982214DF2151001F02AF91D
:104B400001214DF2161001F025F9CA214DF217107E
:104B500001F020F902214DF2181001F01BF900219B
:104B60004DF2191001F016F902214DF21A1001F060
:104B700011F901214DF21B1001F00CF902214DF247
:104B80001C1001F007F934214DF21D1001F002F95B
:104B900002214DF21E1001F0FDF867214DF21F10A9
:104BA00001F0F8F802214DF2201001F0F3F8842111
:104BB0004DF2211001F0EEF802214DF2221001F029
:104BC000E9F8A4214DF2231001F0E4F802214DF29E
:104BD000241001F0DFF8B7214DF2251001F0DAF8CA
:104BE00002214DF2261001F0D5F8CF214DF2271009
:104BF00001F0D0F802214DF2281001F0CBF8DE21AF
:104C00004DF2291001F0C6F802214DF22A1001F0F0
:104C1000C1F8F2214DF22B1001F0BCF802214DF247
:104C20002C1001F0B7F8FE214DF22D1001F0B2F872
:104C300003214DF22E1001F0ADF810214DF22F108E
:104C400001F0A8F803214DF2301001F0A3F8332150
:104C50004DF2311001F09EF803214DF2321001F0B7
:104C600099F86D214DF2331001F094F800214FF4C2
:104C7000524001F08FF833214DF2012001F08AF803
:104C800000214DF2022001F085F834214DF203207D
:104C900001F080F800214DF2042001F07BF83A2168
:104CA0004DF2052001F076F800214DF2062001F0CA
:104CB00071F84A214DF2072001F06CF800214DF205
:104CC000082001F067F85C214DF2092001F062F83C
:104CD00000214DF20A2001F05DF881214DF20B20F8
:104CE00001F058F800214DF20C2001F053F8A621F4
:104CF0004DF20D2001F04EF800214DF20E2001F092
:104D000049F8E5214DF20F2001F044F801214DF260
:104D1000102001F03FF813214DF2112001F03AF874
:104D200001214DF2122001F035F854214DF21320EB
:104D300001F030F801214DF2142001F02BF882210E
:104D40004DF2152001F026F801214DF2162001F058
:104D500021F8CA214DF2172001F01CF802214DF272
:104D6000182001F017F800214DF2192001F012F877
:104D700002214DF21A2001F00DF801214DF21B2005
:104D800001F008F802214DF21C2001F003F8342153
:104D90004DF21D2000F0FEFF02214DF21E2000F01A
:104DA000F9FF67214DF21F2000F0F4FF02214DF2C0
:104DB000202000F0EFFF84214DF2212000F0EAFFD7
:104DC00002214DF2222000F0E5FFA4214DF2232024
:104DD00000F0E0FF02214DF2242000F0DBFFB721BC
:104DE0004DF2252000F0D6FF02214DF2262000F0E2
:104DF000D1FFCF214DF2272000F0CCFF02214DF250
:104E0000282000F0C7FFDE214DF2292000F0C2FF6C
:104E100002214DF22A2000F0BDFFF2214DF22B209D
:104E200000F0B8FF02214DF22C2000F0B3FFFE216C
:104E30004DF22D2000F0AEFF03214DF22E2000F0A8
:104E4000A9FF10214DF22F2000F0A4FF03214DF205
:104E5000302000F09FFF33214DF2312000F09AFF07
:104E600003214DF2322000F095FF6D214DF23320E9
:104E700000F090FF00214FF4534000F08BFF3321EE
:104E80004DF2013000F086FF00214DF2023000F0BB
:104E900081FF34214DF2033000F07CFF00214DF200
:104EA000043000F077FF3A214DF2053000F072FF38
:104EB00000214DF2063000F06DFF4A214DF207301F
:104EC00000F068FF00214DF2083000F063FF5C2124
:104ED0004DF2093000F05EFF00214DF20A3000F083
:104EE00059FF81214DF20B3000F054FF00214DF2AB
:104EF0000C3000F04FFFA6214DF20D3000F04AFFBC
:104F000000214DF20E3000F045FFE5214DF20F304B
:104F100000F040FF01214DF2103000F03BFF132163
:104F20004DF2113000F036FF01214DF2123000F049
:104F300031FF54214DF2133000F02CFF01214DF2CE
:104F4000143000F027FF82214DF2153000F022FFCF
:104F500001214DF2163000F01DFFCA214DF217302D
:104F600000F018FF02214DF2183000F013FF00216D
:104F70004DF2193000F00EFF02214DF21A3000F010
:104F800009FF01214DF21B3000F004FF02214DF218
:104F90001C3000F0FFFE34214DF21D3000F0FAFE0F
:104FA00002214DF21E3000F0F5FE67214DF21F3058
:104FB00000F0F0FE02214DF2203000F0EBFE8421E3
:104FC0004DF2213000F0E6FE02214DF2223000F0D9
:104FD000E1FEA4214DF2233000F0DCFE02214DF26F
:104FE000243000F0D7FEB7214DF2253000F0D2FE7C
:104FF00002214DF2263000F0CDFECF214DF22730B8
:1050000000F0C8FE02214DF2283000F0C3FEDE2180
:105010004DF2293000F0BEFE02214DF22A3000F0A0
:10502000B9FEF2214DF22B3000F0B4FE02214DF218
:105030002C3000F0AFFEFE214DF22D3000F0AAFE24
:1050400003214DF22E3000F0A5FE10214DF22F303D
:1050500000F0A0FE03214DF2303000F09BFE332122
:105060004DF2313000F096FE03214DF2323000F067
:1050700091FE6D214DF2333000F08CFE00214FF493
:10508000544000F087FE33214DF2014000E083E3FD
:1050900000F080FE00214DF2024000F07BFE342142
:1050A0004DF2034000F076FE00214DF2044000F086
:1050B00071FE3A214DF2054000F06CFE00214DF2E8
:1050C000064000F067FE4A214DF2074000F062FE04
:1050D00000214DF2084000F05DFE5C214DF20940D8
:1050E00000F058FE00214DF20A4000F053FE8121ED
:1050F0004DF20B4000F04EFE00214DF20C4000F04E
:1051000049FEA6214DF20D4000F044FE00214DF273
:105110000E4000F03FFEE5214DF20F4000F03AFE58
:1051200001214DF2104000F035FE13214DF21140E7
:1051300000F030FE01214DF2124000F02BFE542110
:105140004DF2134000F026FE01214DF2144000F014
:1051500021FE82214DF2154000F01CFE01214DF28E
:10516000164000F017FECA214DF2174000F012FE63
:1051700002214DF2184000F00DFE00214DF21940C1
:1051800000F008FE02214DF21A4000F003FE00E09C
:1051900005E301214DF21B4000F0FCFD02214DF220
:1051A0001C4000F0F7FD34214DF21D4000F0F2FDEF
:1051B00002214DF21E4000F0EDFD67214DF21F402F
:1051C00000F0E8FD02214DF2204000F0E3FD8421D3
:1051D0004DF2214000F0DEFD02214DF2224000F0B0
:1051E000D9FDA4214DF2234000F0D4FD02214DF25F
:1051F000244000F0CFFDB7214DF2254000F0CAFD5C
:1052000002214DF2264000F0C5FDCF214DF227408E
:1052100000F0C0FD02214DF2284000F0BBFDDE2170
:105220004DF2294000F0B6FD02214DF22A4000F077
:10523000B1FDF2214DF22B4000F0ACFD02214DF208
:105240002C4000F0A7FDFE214DF22D4000F0A2FD04
:1052500003214DF22E4000F09DFD10214DF22F4014
:1052600000F098FD03214DF2304000F093FD332112
:105270004DF2314000F08EFD03214DF2324000F03E
:1052800089FD6D214DF2334000F084FD00214FF483
:10529000554000F07FFD33214DF2015000F07AFDC2
:1052A00000214DF2025000F075FD34214DF2035003
:1052B00000F070FD00214DF2045000F06BFD3A212A
:1052C0004DF2055000F066FD00214DF2065000F051
:1052D00061FD4A214DF2075000F05CFD00214DF2C6
:1052E000085000F057FD5C214DF2095000F052FDCE
:1052F00000214DF20A5000F04DFD81214DF20B507E
:1053000000F048FD00214DF20C5000F043FDA621B5
:105310004DF20D5000F03EFD00214DF20E5000F018
:1053200039FDE5214DF20F5000F034FD01214DF221
:10533000105000F02FFD13214DF2115000F02AFD06
:1053400001214DF2125000F025FD54214DF2135071
:1053500000F020FD01214DF2145000F01BFD8221D0
:105360004DF2155000F016FD01214DF2165000F0DF
:1053700011FDCA214DF2175000F00CFD02214DF233
:10538000185000F007FD00214DF2195000F002FD09
:1053900002214DF21A5000F0FDFC01214DF21B508C
:1053A00000F0F8FC02214DF21C5000F0F3FC342117
:1053B0004DF21D5000F0EEFC02214DF21E5000F0A7
:1053C000E9FC67214DF21F5000F0E4FC02214DF290
:1053D000205000F0DFFC84214DF2215000F0DAFC77
:1053E00002214DF2225000F0D5FCA4214DF22350B1
:1053F00000F0D0FC02214DF2245000F0CBFCB7218C
:105400004DF2255000F0C6FC02214DF2265000F06E
:10541000C1FCCF214DF2275000F0BCFC02214DF21F
:10542000285000F0B7FCDE214DF2295000F0B2FC0C
:1054300002214DF22A5000F0ADFCF2214DF22B502A
:1054400000F0A8FC02214DF22C5000F0A3FCFE213C
:105450004DF22D5000F09EFC03214DF22E5000F035
:1054600099FC10214DF22F5000F094FC03214DF2D5
:10547000305000F08FFC33214DF2315000F08AFCA7
:1054800003214DF2325000F085FC6D214DF2335076
:1054900000F080FC00214FF4564000F07BFC3321EB
:1054A0004DF2016000F076FC00214DF2026000F048
:1054B00071FC34214DF2036000F06CFC00214DF2D0
:1054C000046000F067FC3A214DF2056000F062FCD8
:1054D00000214DF2066000F05DFC4A214DF20760AC
:1054E00000F058FC00214DF2086000F053FC5C21F4
:1054F0004DF2096000F04EFC00214DF20A6000F010
:1055000049FC81214DF20B6000F044FC00214DF27A
:105510000C6000F03FFCA6214DF20D6000F03AFC5B
:1055200000214DF20E6000F035FCE5214DF20F60D8
:1055300000F030FC01214DF2106000F02BFC132133
:105540004DF2116000F026FC01214DF2126000F0D6
:1055500021FC54214DF2136000F01CFC01214DF29E
:10556000146000F017FC82214DF2156000F012FC6F
:1055700001214DF2166000F00DFCCA214DF21760BA
:1055800000F008FC02214DF2186000F003FC00213D
:105590004DF2196000F0FEFB02214DF21A6000F09E
:1055A000F9FB01214DF21B6000F0F4FB02214DF2EA
:1055B0001C6000F0EFFB34214DF21D6000F0EAFBAF
:1055C00002214DF21E6000F0E5FB67214DF21F60E5
:1055D00000F0E0FB02214DF2206000F0DBFB8421B3
:1055E0004DF2216000F0D6FB02214DF2226000F066
:1055F000D1FBA4214DF2236000F0CCFB02214DF23F
:10560000246000F0C7FBB7214DF2256000F0C2FB1B
:1056100002214DF2266000F0BDFBCF214DF2276044
:1056200000F0B8FB02214DF2286000F0B3FBDE2150
:105630004DF2296000F0AEFB02214DF22A6000F02D
:10564000A9FBF2214DF22B6000F0A4FB02214DF2E8
:105650002C6000F09FFBFE214DF22D6000F09AFBC4
:1056600003214DF22E6000F095FB10214DF22F60CA
:1056700000F090FB03214DF2306000F08BFB3321F2
:105680004DF2316000F086FB03214DF2326000F0F4
:1056900081FB6D214DF2336000F07CFB55211846F3
:1056A00000F078FBAA21504600F074FB52215846C6
:1056B00000F070FB08214FF2030000F06BFB0021AB
:1056C0004FF2040000F066FBCC214FF4314000F0B3
:1056D00061FB00214BF2011000F05CFB05214FF44F
:1056E000364000F057FB70214FF4374000F052FB7A
:1056F00070214BF2017000F04DFB01214FF4384056
:1057000000F048FB03214BF6010000F043FB0321AE
:105710004BF6020000F03EFB03214BF6030000F0C5
:1057200039FB02214FF43C4000F034FB00214BF6E2
:10573000014000F02FFB00214BF6024000F02AFB55
:10574000D0214FF4494000F025FB02214CF6011016
:1057500000F020FB50214CF6021000F01BFB502102
:105760004CF6031000F016FB50214CF6041000F02C
:1057700011FB00214FF4545000F00CFB55214FF465
:10578000685000F007FB4FF4885000F0EDFA7820E5
:1057900002F07AF84FF4245000F0E6FAB9E0404500
:1057A000FCD1E22000F0E0FA1D2000F0D1FA022046
:1057B00000F0CEFA042000F0CBFA642002F064F886
:1057C000E02000F0D1FA012000F0C2FA0A20FBF735
:1057D0005BFEE02000F0C8FA032000F0B9FA0C20CC
:1057E000FBF752FE012000F0BFFA0A20FBF74CFE47
:1057F000E62000F0B9FA2F2000F0AAFAFF2000F00E
:10580000A7FAFF2000F0A4FAB02000F0ADFA2020A3
:1058100000F09EFA002000F09BFA032000F098FAB6
:1058200040F21F3000F094FA012000F091FA40F2AB
:10583000DF1000F08DFA002000F08AFAB42000F0AA
:1058400093FA042000F084FA40F21F4000F080FA3E
:10585000002000F07DFA2E2000F07AFA002000F0FF
:1058600077FA002000F074FA002000F071FA0020AE
:1058700000F06EFAB62000F077FA022000F068FA25
:105880004FF4037000F064FA002000F061FA172072
:1058900000F05EFA152000F05BFA002000F058FAE4
:1058A000002000F055FAF02000F05EFA032000F02E
:1058B0004FFA292000F058FAD02000F055FA0020C5
:1058C00000F046FABE2000F04FFA052000F040FA42
:1058D000FE2000F03DFA012000F03AFA002000F02E
:1058E00037FA002000F034FA002000F031FAB82036
:1058F00000F03AFA032000F02BFA012000F028FA19
:10590000BA2000F031FA012000F022FA642000F001
:105910003DF8A088B04205D0B84203D0A84201D0DB
:10592000404519D14FF02040D0F81C1121F00F0153
:10593000C0F81C11D0F81C1121F47061C0F81C11C2
:10594000D0F81C1141F00101C0F81C11D0F81C1155
:1059500041F48071C0F81C110020FDF765FD0122A3
:1059600011460448FBF7EBFE4846BDE8F05FFDF743
:1059700041BD0000000C0140034808B50088ADF8A7
:105980000000BDF8000008BD0008006C10B502461C
:10599000BE2000F0E9F9052000F0DAF91046FAF728
:1059A00019FF4FF066320B4BFAF79DFEFAF71FFF17
:1059B00080B200F0CDF9012000F0CAF9FF2000F01C
:1059C000C7F9002000F0C4F9BDE81040002000F045
:1059D000BFB9000066660440F0B56C4C0023214658
:1059E000A279898841F66316012A01D01AB11BE019
:1059F000B14202D118E0B14216D1082814D2DFE832
:105A000000F00406080A0C0E101206200CE0072015
:105A10000AE0042008E0052006E0012004E0002060
:105A200002E0032000E00220A1F5134745F2103206
:105A300045F21055413F05D0914203D0A94201D013
:105A4000B14277D1082812D2DFE800F0110406082D
:105A50000A0C0E1080230AE0402308E0C02306E071
:105A6000202304E0602302E0A02300E0E023A94219
:105A700002D14FF4585000E03620914205D0A9429F
:105A800003D0B14201D043F00803194600F082F977
:105A9000A188B1420AD098062088628802D5904237
:105AA00002D303E0904201D9228060806089A9423C
:105AB00041D100F059F9002000F04AF96089401CFA
:105AC00080B200F051F9002000F042F96089801C9A
:105AD00080B200F049F92088401EC0F30F2000F08A
